{
  "_format": "hh-sol-artifact-1",
  "contractName": "MelkTest",
  "sourceName": "contracts/nft.sol",
  "abi": [
    {
      "inputs": [],
      "stateMutability": "nonpayable",
      "type": "constructor"
    },
    {
      "anonymous": false,
      "inputs": [
        {
          "indexed": true,
          "internalType": "address",
          "name": "owner",
          "type": "address"
        },
        {
          "indexed": true,
          "internalType": "address",
          "name": "approved",
          "type": "address"
        },
        {
          "indexed": true,
          "internalType": "uint256",
          "name": "tokenId",
          "type": "uint256"
        }
      ],
      "name": "Approval",
      "type": "event"
    },
    {
      "anonymous": false,
      "inputs": [
        {
          "indexed": true,
          "internalType": "address",
          "name": "owner",
          "type": "address"
        },
        {
          "indexed": true,
          "internalType": "address",
          "name": "operator",
          "type": "address"
        },
        {
          "indexed": false,
          "internalType": "bool",
          "name": "approved",
          "type": "bool"
        }
      ],
      "name": "ApprovalForAll",
      "type": "event"
    },
    {
      "anonymous": false,
      "inputs": [
        {
          "indexed": true,
          "internalType": "string",
          "name": "moduleName",
          "type": "string"
        }
      ],
      "name": "CourseAdded",
      "type": "event"
    },
    {
      "anonymous": false,
      "inputs": [
        {
          "indexed": true,
          "internalType": "bytes32",
          "name": "role",
          "type": "bytes32"
        },
        {
          "indexed": true,
          "internalType": "bytes32",
          "name": "previousAdminRole",
          "type": "bytes32"
        },
        {
          "indexed": true,
          "internalType": "bytes32",
          "name": "newAdminRole",
          "type": "bytes32"
        }
      ],
      "name": "RoleAdminChanged",
      "type": "event"
    },
    {
      "anonymous": false,
      "inputs": [
        {
          "indexed": true,
          "internalType": "bytes32",
          "name": "role",
          "type": "bytes32"
        },
        {
          "indexed": true,
          "internalType": "address",
          "name": "account",
          "type": "address"
        },
        {
          "indexed": true,
          "internalType": "address",
          "name": "sender",
          "type": "address"
        }
      ],
      "name": "RoleGranted",
      "type": "event"
    },
    {
      "anonymous": false,
      "inputs": [
        {
          "indexed": true,
          "internalType": "bytes32",
          "name": "role",
          "type": "bytes32"
        },
        {
          "indexed": true,
          "internalType": "address",
          "name": "account",
          "type": "address"
        },
        {
          "indexed": true,
          "internalType": "address",
          "name": "sender",
          "type": "address"
        }
      ],
      "name": "RoleRevoked",
      "type": "event"
    },
    {
      "anonymous": false,
      "inputs": [
        {
          "indexed": true,
          "internalType": "address",
          "name": "studentAddress",
          "type": "address"
        },
        {
          "indexed": true,
          "internalType": "string",
          "name": "moduleName",
          "type": "string"
        }
      ],
      "name": "StudentFinishedModule",
      "type": "event"
    },
    {
      "anonymous": false,
      "inputs": [
        {
          "indexed": true,
          "internalType": "address",
          "name": "from",
          "type": "address"
        },
        {
          "indexed": true,
          "internalType": "address",
          "name": "to",
          "type": "address"
        },
        {
          "indexed": true,
          "internalType": "uint256",
          "name": "tokenId",
          "type": "uint256"
        }
      ],
      "name": "Transfer",
      "type": "event"
    },
    {
      "inputs": [],
      "name": "DEFAULT_ADMIN_ROLE",
      "outputs": [
        {
          "internalType": "bytes32",
          "name": "",
          "type": "bytes32"
        }
      ],
      "stateMutability": "view",
      "type": "function"
    },
    {
      "inputs": [
        {
          "internalType": "string",
          "name": "newModule",
          "type": "string"
        }
      ],
      "name": "addModule",
      "outputs": [],
      "stateMutability": "nonpayable",
      "type": "function"
    },
    {
      "inputs": [
        {
          "internalType": "address",
          "name": "to",
          "type": "address"
        },
        {
          "internalType": "uint256",
          "name": "tokenId",
          "type": "uint256"
        }
      ],
      "name": "approve",
      "outputs": [],
      "stateMutability": "nonpayable",
      "type": "function"
    },
    {
      "inputs": [
        {
          "internalType": "address",
          "name": "owner",
          "type": "address"
        }
      ],
      "name": "balanceOf",
      "outputs": [
        {
          "internalType": "uint256",
          "name": "",
          "type": "uint256"
        }
      ],
      "stateMutability": "view",
      "type": "function"
    },
    {
      "inputs": [
        {
          "internalType": "uint256",
          "name": "tokenId",
          "type": "uint256"
        }
      ],
      "name": "getApproved",
      "outputs": [
        {
          "internalType": "address",
          "name": "",
          "type": "address"
        }
      ],
      "stateMutability": "view",
      "type": "function"
    },
    {
      "inputs": [
        {
          "internalType": "bytes32",
          "name": "role",
          "type": "bytes32"
        }
      ],
      "name": "getRoleAdmin",
      "outputs": [
        {
          "internalType": "bytes32",
          "name": "",
          "type": "bytes32"
        }
      ],
      "stateMutability": "view",
      "type": "function"
    },
    {
      "inputs": [
        {
          "internalType": "bytes32",
          "name": "role",
          "type": "bytes32"
        },
        {
          "internalType": "address",
          "name": "account",
          "type": "address"
        }
      ],
      "name": "grantRole",
      "outputs": [],
      "stateMutability": "nonpayable",
      "type": "function"
    },
    {
      "inputs": [
        {
          "internalType": "bytes32",
          "name": "role",
          "type": "bytes32"
        },
        {
          "internalType": "address",
          "name": "account",
          "type": "address"
        }
      ],
      "name": "hasRole",
      "outputs": [
        {
          "internalType": "bool",
          "name": "",
          "type": "bool"
        }
      ],
      "stateMutability": "view",
      "type": "function"
    },
    {
      "inputs": [
        {
          "internalType": "address",
          "name": "owner",
          "type": "address"
        },
        {
          "internalType": "address",
          "name": "operator",
          "type": "address"
        }
      ],
      "name": "isApprovedForAll",
      "outputs": [
        {
          "internalType": "bool",
          "name": "",
          "type": "bool"
        }
      ],
      "stateMutability": "view",
      "type": "function"
    },
    {
      "inputs": [
        {
          "internalType": "string",
          "name": "course",
          "type": "string"
        },
        {
          "internalType": "address",
          "name": "studentAddress",
          "type": "address"
        },
        {
          "internalType": "string",
          "name": "tokenUri",
          "type": "string"
        }
      ],
      "name": "mintCertificate",
      "outputs": [],
      "stateMutability": "nonpayable",
      "type": "function"
    },
    {
      "inputs": [],
      "name": "name",
      "outputs": [
        {
          "internalType": "string",
          "name": "",
          "type": "string"
        }
      ],
      "stateMutability": "view",
      "type": "function"
    },
    {
      "inputs": [
        {
          "internalType": "uint256",
          "name": "tokenId",
          "type": "uint256"
        }
      ],
      "name": "ownerOf",
      "outputs": [
        {
          "internalType": "address",
          "name": "",
          "type": "address"
        }
      ],
      "stateMutability": "view",
      "type": "function"
    },
    {
      "inputs": [
        {
          "internalType": "bytes32",
          "name": "role",
          "type": "bytes32"
        },
        {
          "internalType": "address",
          "name": "account",
          "type": "address"
        }
      ],
      "name": "renounceRole",
      "outputs": [],
      "stateMutability": "nonpayable",
      "type": "function"
    },
    {
      "inputs": [
        {
          "internalType": "bytes32",
          "name": "role",
          "type": "bytes32"
        },
        {
          "internalType": "address",
          "name": "account",
          "type": "address"
        }
      ],
      "name": "revokeRole",
      "outputs": [],
      "stateMutability": "nonpayable",
      "type": "function"
    },
    {
      "inputs": [
        {
          "internalType": "address",
          "name": "from",
          "type": "address"
        },
        {
          "internalType": "address",
          "name": "to",
          "type": "address"
        },
        {
          "internalType": "uint256",
          "name": "tokenId",
          "type": "uint256"
        }
      ],
      "name": "safeTransferFrom",
      "outputs": [],
      "stateMutability": "nonpayable",
      "type": "function"
    },
    {
      "inputs": [
        {
          "internalType": "address",
          "name": "from",
          "type": "address"
        },
        {
          "internalType": "address",
          "name": "to",
          "type": "address"
        },
        {
          "internalType": "uint256",
          "name": "tokenId",
          "type": "uint256"
        },
        {
          "internalType": "bytes",
          "name": "_data",
          "type": "bytes"
        }
      ],
      "name": "safeTransferFrom",
      "outputs": [],
      "stateMutability": "nonpayable",
      "type": "function"
    },
    {
      "inputs": [
        {
          "internalType": "address",
          "name": "operator",
          "type": "address"
        },
        {
          "internalType": "bool",
          "name": "approved",
          "type": "bool"
        }
      ],
      "name": "setApprovalForAll",
      "outputs": [],
      "stateMutability": "nonpayable",
      "type": "function"
    },
    {
      "inputs": [
        {
          "internalType": "bytes4",
          "name": "interfaceId",
          "type": "bytes4"
        }
      ],
      "name": "supportsInterface",
      "outputs": [
        {
          "internalType": "bool",
          "name": "",
          "type": "bool"
        }
      ],
      "stateMutability": "view",
      "type": "function"
    },
    {
      "inputs": [],
      "name": "symbol",
      "outputs": [
        {
          "internalType": "string",
          "name": "",
          "type": "string"
        }
      ],
      "stateMutability": "view",
      "type": "function"
    },
    {
      "inputs": [
        {
          "internalType": "uint256",
          "name": "tokenId",
          "type": "uint256"
        }
      ],
      "name": "tokenURI",
      "outputs": [
        {
          "internalType": "string",
          "name": "",
          "type": "string"
        }
      ],
      "stateMutability": "view",
      "type": "function"
    },
    {
      "inputs": [
        {
          "internalType": "address",
          "name": "from",
          "type": "address"
        },
        {
          "internalType": "address",
          "name": "to",
          "type": "address"
        },
        {
          "internalType": "uint256",
          "name": "tokenId",
          "type": "uint256"
        }
      ],
      "name": "transferFrom",
      "outputs": [],
      "stateMutability": "nonpayable",
      "type": "function"
    }
  ],
  "bytecode": "0x60806040523480156200001157600080fd5b506040518060400160405280600c81526020017f50726f6a65746f204d454c4b00000000000000000000000000000000000000008152506040518060400160405280600481526020017f4d454c4b000000000000000000000000000000000000000000000000000000008152508160009080519060200190620000969291906200025c565b508060019080519060200190620000af9291906200025c565b505050620000db6000801b738626f6940e2eb28930efb4cef49b2d1f2c9c1199620000e160201b60201c565b62000371565b620000f38282620000f760201b60201c565b5050565b620001098282620001e960201b60201c565b620001e55760016007600084815260200190815260200160002060000160008373ffffffffffffffffffffffffffffffffffffffff1673ffffffffffffffffffffffffffffffffffffffff16815260200190815260200160002060006101000a81548160ff0219169083151502179055506200018a6200025460201b60201c565b73ffffffffffffffffffffffffffffffffffffffff168173ffffffffffffffffffffffffffffffffffffffff16837f2f8788117e7eff1d82e926ec794901d17c78024a50270940304540a733656f0d60405160405180910390a45b5050565b60006007600084815260200190815260200160002060000160008373ffffffffffffffffffffffffffffffffffffffff1673ffffffffffffffffffffffffffffffffffffffff16815260200190815260200160002060009054906101000a900460ff16905092915050565b600033905090565b8280546200026a906200030c565b90600052602060002090601f0160209004810192826200028e5760008555620002da565b82601f10620002a957805160ff1916838001178555620002da565b82800160010185558215620002da579182015b82811115620002d9578251825591602001919060010190620002bc565b5b509050620002e99190620002ed565b5090565b5b8082111562000308576000816000905550600101620002ee565b5090565b600060028204905060018216806200032557607f821691505b602082108114156200033c576200033b62000342565b5b50919050565b7f4e487b7100000000000000000000000000000000000000000000000000000000600052602260045260246000fd5b613c6180620003816000396000f3fe608060405234801561001057600080fd5b50600436106101375760003560e01c806370a08231116100b8578063b88d4fde1161007c578063b88d4fde1461035e578063bbd1e1861461037a578063c87b56dd14610396578063d547741f146103c6578063d7b28dfc146103e2578063e985e9c5146103fe57610137565b806370a08231146102a657806391d14854146102d657806395d89b4114610306578063a217fddf14610324578063a22cb4651461034257610137565b8063248a9ca3116100ff578063248a9ca3146101f25780632f2ff15d1461022257806336568abe1461023e57806342842e0e1461025a5780636352211e1461027657610137565b806301ffc9a71461013c57806306fdde031461016c578063081812fc1461018a578063095ea7b3146101ba57806323b872dd146101d6575b600080fd5b6101566004803603810190610151919061282e565b61042e565b6040516101639190612e49565b60405180910390f35b610174610440565b6040516101819190612e7f565b60405180910390f35b6101a4600480360381019061019f9190612940565b6104d2565b6040516101b19190612de2565b60405180910390f35b6101d460048036038101906101cf919061278d565b610557565b005b6101f060048036038101906101eb9190612687565b61066f565b005b61020c600480360381019061020791906127c9565b6106cf565b6040516102199190612e64565b60405180910390f35b61023c600480360381019061023791906127f2565b6106ef565b005b610258600480360381019061025391906127f2565b610710565b005b610274600480360381019061026f9190612687565b610793565b005b610290600480360381019061028b9190612940565b6107b3565b60405161029d9190612de2565b60405180910390f35b6102c060048036038101906102bb9190612622565b610865565b6040516102cd9190613141565b60405180910390f35b6102f060048036038101906102eb91906127f2565b61091d565b6040516102fd9190612e49565b60405180910390f35b61030e610988565b60405161031b9190612e7f565b60405180910390f35b61032c610a1a565b6040516103399190612e64565b60405180910390f35b61035c60048036038101906103579190612751565b610a21565b005b610378600480360381019061037391906126d6565b610a37565b005b610394600480360381019061038f9190612880565b610a99565b005b6103b060048036038101906103ab9190612940565b610b94565b6040516103bd9190612e7f565b60405180910390f35b6103e060048036038101906103db91906127f2565b610ce6565b005b6103fc60048036038101906103f791906128c1565b610d07565b005b6104186004803603810190610413919061264b565b610eca565b6040516104259190612e49565b60405180910390f35b600061043982610f5e565b9050919050565b60606000805461044f90613425565b80601f016020809104026020016040519081016040528092919081815260200182805461047b90613425565b80156104c85780601f1061049d576101008083540402835291602001916104c8565b820191906000526020600020905b8154815290600101906020018083116104ab57829003601f168201915b5050505050905090565b60006104dd82610fd8565b61051c576040517f08c379a000000000000000000000000000000000000000000000000000000000815260040161051390613081565b60405180910390fd5b6004600083815260200190815260200160002060009054906101000a900473ffffffffffffffffffffffffffffffffffffffff169050919050565b6000610562826107b3565b90508073ffffffffffffffffffffffffffffffffffffffff168373ffffffffffffffffffffffffffffffffffffffff1614156105d3576040517f08c379a00000000000000000000000000000000000000000000000000000000081526004016105ca906130c1565b60405180910390fd5b8073ffffffffffffffffffffffffffffffffffffffff166105f2611044565b73ffffffffffffffffffffffffffffffffffffffff16148061062157506106208161061b611044565b610eca565b5b610660576040517f08c379a000000000000000000000000000000000000000000000000000000000815260040161065790612fa1565b60405180910390fd5b61066a838361104c565b505050565b61068061067a611044565b82611105565b6106bf576040517f08c379a00000000000000000000000000000000000000000000000000000000081526004016106b6906130e1565b60405180910390fd5b6106ca8383836111e3565b505050565b600060076000838152602001908152602001600020600101549050919050565b6106f8826106cf565b6107018161144a565b61070b838361145e565b505050565b610718611044565b73ffffffffffffffffffffffffffffffffffffffff168173ffffffffffffffffffffffffffffffffffffffff1614610785576040517f08c379a000000000000000000000000000000000000000000000000000000000815260040161077c90613121565b60405180910390fd5b61078f828261153f565b5050565b6107ae83838360405180602001604052806000815250610a37565b505050565b6000806002600084815260200190815260200160002060009054906101000a900473ffffffffffffffffffffffffffffffffffffffff169050600073ffffffffffffffffffffffffffffffffffffffff168173ffffffffffffffffffffffffffffffffffffffff16141561085c576040517f08c379a000000000000000000000000000000000000000000000000000000000815260040161085390612fe1565b60405180910390fd5b80915050919050565b60008073ffffffffffffffffffffffffffffffffffffffff168273ffffffffffffffffffffffffffffffffffffffff1614156108d6576040517f08c379a00000000000000000000000000000000000000000000000000000000081526004016108cd90612fc1565b60405180910390fd5b600360008373ffffffffffffffffffffffffffffffffffffffff1673ffffffffffffffffffffffffffffffffffffffff168152602001908152602001600020549050919050565b60006007600084815260200190815260200160002060000160008373ffffffffffffffffffffffffffffffffffffffff1673ffffffffffffffffffffffffffffffffffffffff16815260200190815260200160002060009054906101000a900460ff16905092915050565b60606001805461099790613425565b80601f01602080910402602001604051908101604052809291908181526020018280546109c390613425565b8015610a105780601f106109e557610100808354040283529160200191610a10565b820191906000526020600020905b8154815290600101906020018083116109f357829003601f168201915b5050505050905090565b6000801b81565b610a33610a2c611044565b8383611621565b5050565b610a48610a42611044565b83611105565b610a87576040517f08c379a0000000000000000000000000000000000000000000000000000000008152600401610a7e906130e1565b60405180910390fd5b610a938484848461178e565b50505050565b600081604051602001610aac9190612d6d565b6040516020818303038152906040528051906020012090506000600a60008381526020019081526020016000208054610ae490613425565b905014610b26576040517f08c379a0000000000000000000000000000000000000000000000000000000008152600401610b1d90613021565b60405180910390fd5b81600a60008381526020019081526020016000209080519060200190610b4d929190612431565b5081604051610b5c9190612d6d565b60405180910390207f7b8e36ec94f5deb0831b2ed36c8d1db6f6766235c8b456d0db8b0895ea7e7a1d60405160405180910390a25050565b6060610b9f82610fd8565b610bde576040517f08c379a0000000000000000000000000000000000000000000000000000000008152600401610bd590613061565b60405180910390fd5b6000600660008481526020019081526020016000208054610bfe90613425565b80601f0160208091040260200160405190810160405280929190818152602001828054610c2a90613425565b8015610c775780601f10610c4c57610100808354040283529160200191610c77565b820191906000526020600020905b815481529060010190602001808311610c5a57829003601f168201915b505050505090506000610c886117ea565b9050600081511415610c9e578192505050610ce1565b600082511115610cd3578082604051602001610cbb929190612d84565b60405160208183030381529060405292505050610ce1565b610cdc84611801565b925050505b919050565b610cef826106cf565b610cf88161144a565b610d02838361153f565b505050565b610d146000801b3361091d565b610d53576040517f08c379a0000000000000000000000000000000000000000000000000000000008152600401610d4a90612ec1565b60405180910390fd5b600983604051610d639190612d6d565b9081526020016040518091039020829080600181540180825580915050600190039060005260206000200160009091909190916101000a81548173ffffffffffffffffffffffffffffffffffffffff021916908373ffffffffffffffffffffffffffffffffffffffff160217905550600083604051602001610de59190612d6d565b6040516020818303038152906040528051906020012090506000600a60008381526020019081526020016000208054610e1d90613425565b90501415610e60576040517f08c379a0000000000000000000000000000000000000000000000000000000008152600401610e5790613101565b60405180910390fd5b610e6b8183856118a8565b83604051610e799190612d6d565b60405180910390208373ffffffffffffffffffffffffffffffffffffffff167f9a74ae31088328129495d981336d8ddd91174bc214987d17490e3500291bcd9d60405160405180910390a350505050565b6000600560008473ffffffffffffffffffffffffffffffffffffffff1673ffffffffffffffffffffffffffffffffffffffff16815260200190815260200160002060008373ffffffffffffffffffffffffffffffffffffffff1673ffffffffffffffffffffffffffffffffffffffff16815260200190815260200160002060009054906101000a900460ff16905092915050565b60007f7965db0b000000000000000000000000000000000000000000000000000000007bffffffffffffffffffffffffffffffffffffffffffffffffffffffff1916827bffffffffffffffffffffffffffffffffffffffffffffffffffffffff19161480610fd15750610fd0826118f2565b5b9050919050565b60008073ffffffffffffffffffffffffffffffffffffffff166002600084815260200190815260200160002060009054906101000a900473ffffffffffffffffffffffffffffffffffffffff1673ffffffffffffffffffffffffffffffffffffffff1614159050919050565b600033905090565b816004600083815260200190815260200160002060006101000a81548173ffffffffffffffffffffffffffffffffffffffff021916908373ffffffffffffffffffffffffffffffffffffffff160217905550808273ffffffffffffffffffffffffffffffffffffffff166110bf836107b3565b73ffffffffffffffffffffffffffffffffffffffff167f8c5be1e5ebec7d5bd14f71427d1e84f3dd0314c0f7b2291e5b200ac8c7c3b92560405160405180910390a45050565b600061111082610fd8565b61114f576040517f08c379a000000000000000000000000000000000000000000000000000000000815260040161114690612f81565b60405180910390fd5b600061115a836107b3565b90508073ffffffffffffffffffffffffffffffffffffffff168473ffffffffffffffffffffffffffffffffffffffff16148061119c575061119b8185610eca565b5b806111da57508373ffffffffffffffffffffffffffffffffffffffff166111c2846104d2565b73ffffffffffffffffffffffffffffffffffffffff16145b91505092915050565b8273ffffffffffffffffffffffffffffffffffffffff16611203826107b3565b73ffffffffffffffffffffffffffffffffffffffff1614611259576040517f08c379a000000000000000000000000000000000000000000000000000000000815260040161125090612f01565b60405180910390fd5b600073ffffffffffffffffffffffffffffffffffffffff168273ffffffffffffffffffffffffffffffffffffffff1614156112c9576040517f08c379a00000000000000000000000000000000000000000000000000000000081526004016112c090612f41565b60405180910390fd5b6112d48383836119d4565b6112df60008261104c565b6001600360008573ffffffffffffffffffffffffffffffffffffffff1673ffffffffffffffffffffffffffffffffffffffff168152602001908152602001600020600082825461132f9190613307565b925050819055506001600360008473ffffffffffffffffffffffffffffffffffffffff1673ffffffffffffffffffffffffffffffffffffffff16815260200190815260200160002060008282546113869190613226565b92505081905550816002600083815260200190815260200160002060006101000a81548173ffffffffffffffffffffffffffffffffffffffff021916908373ffffffffffffffffffffffffffffffffffffffff160217905550808273ffffffffffffffffffffffffffffffffffffffff168473ffffffffffffffffffffffffffffffffffffffff167fddf252ad1be2c89b69c2b068fc378daa952ba7f163c4a11628f55a4df523b3ef60405160405180910390a46114458383836119d9565b505050565b61145b81611456611044565b6119de565b50565b611468828261091d565b61153b5760016007600084815260200190815260200160002060000160008373ffffffffffffffffffffffffffffffffffffffff1673ffffffffffffffffffffffffffffffffffffffff16815260200190815260200160002060006101000a81548160ff0219169083151502179055506114e0611044565b73ffffffffffffffffffffffffffffffffffffffff168173ffffffffffffffffffffffffffffffffffffffff16837f2f8788117e7eff1d82e926ec794901d17c78024a50270940304540a733656f0d60405160405180910390a45b5050565b611549828261091d565b1561161d5760006007600084815260200190815260200160002060000160008373ffffffffffffffffffffffffffffffffffffffff1673ffffffffffffffffffffffffffffffffffffffff16815260200190815260200160002060006101000a81548160ff0219169083151502179055506115c2611044565b73ffffffffffffffffffffffffffffffffffffffff168173ffffffffffffffffffffffffffffffffffffffff16837ff6391f5c32d9c69d2a47ea670b442974b53935d1edc7fd64eb21e047a839171b60405160405180910390a45b5050565b8173ffffffffffffffffffffffffffffffffffffffff168373ffffffffffffffffffffffffffffffffffffffff161415611690576040517f08c379a000000000000000000000000000000000000000000000000000000000815260040161168790612f61565b60405180910390fd5b80600560008573ffffffffffffffffffffffffffffffffffffffff1673ffffffffffffffffffffffffffffffffffffffff16815260200190815260200160002060008473ffffffffffffffffffffffffffffffffffffffff1673ffffffffffffffffffffffffffffffffffffffff16815260200190815260200160002060006101000a81548160ff0219169083151502179055508173ffffffffffffffffffffffffffffffffffffffff168373ffffffffffffffffffffffffffffffffffffffff167f17307eab39ab6107e8899845ad3d59bd9653f200f220920489ca2b5937696c31836040516117819190612e49565b60405180910390a3505050565b6117998484846111e3565b6117a584848484611a7b565b6117e4576040517f08c379a00000000000000000000000000000000000000000000000000000000081526004016117db90612ee1565b60405180910390fd5b50505050565b606060405180602001604052806000815250905090565b606061180c82610fd8565b61184b576040517f08c379a0000000000000000000000000000000000000000000000000000000008152600401611842906130a1565b60405180910390fd5b60006118556117ea565b9050600081511161187557604051806020016040528060008152506118a0565b8061187f84611c12565b604051602001611890929190612d84565b6040516020818303038152906040525b915050919050565b6118b26008611dbf565b60006118be6008611dd5565b905083600b6000838152602001908152602001600020819055506118e28282611de3565b6118ec8184611e01565b50505050565b60007f80ac58cd000000000000000000000000000000000000000000000000000000007bffffffffffffffffffffffffffffffffffffffffffffffffffffffff1916827bffffffffffffffffffffffffffffffffffffffffffffffffffffffff191614806119bd57507f5b5e139f000000000000000000000000000000000000000000000000000000007bffffffffffffffffffffffffffffffffffffffffffffffffffffffff1916827bffffffffffffffffffffffffffffffffffffffffffffffffffffffff1916145b806119cd57506119cc82611e75565b5b9050919050565b505050565b505050565b6119e8828261091d565b611a7757611a0d8173ffffffffffffffffffffffffffffffffffffffff166014611edf565b611a1b8360001c6020611edf565b604051602001611a2c929190612da8565b6040516020818303038152906040526040517f08c379a0000000000000000000000000000000000000000000000000000000008152600401611a6e9190612e7f565b60405180910390fd5b5050565b6000611a9c8473ffffffffffffffffffffffffffffffffffffffff166121d9565b15611c05578373ffffffffffffffffffffffffffffffffffffffff1663150b7a02611ac5611044565b8786866040518563ffffffff1660e01b8152600401611ae79493929190612dfd565b602060405180830381600087803b158015611b0157600080fd5b505af1925050508015611b3257506040513d601f19601f82011682018060405250810190611b2f9190612857565b60015b611bb5573d8060008114611b62576040519150601f19603f3d011682016040523d82523d6000602084013e611b67565b606091505b50600081511415611bad576040517f08c379a0000000000000000000000000000000000000000000000000000000008152600401611ba490612ee1565b60405180910390fd5b805181602001fd5b63150b7a0260e01b7bffffffffffffffffffffffffffffffffffffffffffffffffffffffff1916817bffffffffffffffffffffffffffffffffffffffffffffffffffffffff191614915050611c0a565b600190505b949350505050565b60606000821415611c5a576040518060400160405280600181526020017f30000000000000000000000000000000000000000000000000000000000000008152509050611dba565b600082905060005b60008214611c8c578080611c7590613488565b915050600a82611c85919061327c565b9150611c62565b60008167ffffffffffffffff811115611cce577f4e487b7100000000000000000000000000000000000000000000000000000000600052604160045260246000fd5b6040519080825280601f01601f191660200182016040528015611d005781602001600182028036833780820191505090505b5090505b60008514611db357600182611d199190613307565b9150600a85611d2891906134d1565b6030611d349190613226565b60f81b818381518110611d70577f4e487b7100000000000000000000000000000000000000000000000000000000600052603260045260246000fd5b60200101907effffffffffffffffffffffffffffffffffffffffffffffffffffffffffffff1916908160001a905350600a85611dac919061327c565b9450611d04565b8093505050505b919050565b6001816000016000828254019250508190555050565b600081600001549050919050565b611dfd8282604051806020016040528060008152506121fc565b5050565b611e0a82610fd8565b611e49576040517f08c379a0000000000000000000000000000000000000000000000000000000008152600401611e4090613001565b60405180910390fd5b80600660008481526020019081526020016000209080519060200190611e70929190612431565b505050565b60007f01ffc9a7000000000000000000000000000000000000000000000000000000007bffffffffffffffffffffffffffffffffffffffffffffffffffffffff1916827bffffffffffffffffffffffffffffffffffffffffffffffffffffffff1916149050919050565b606060006002836002611ef291906132ad565b611efc9190613226565b67ffffffffffffffff811115611f3b577f4e487b7100000000000000000000000000000000000000000000000000000000600052604160045260246000fd5b6040519080825280601f01601f191660200182016040528015611f6d5781602001600182028036833780820191505090505b5090507f300000000000000000000000000000000000000000000000000000000000000081600081518110611fcb577f4e487b7100000000000000000000000000000000000000000000000000000000600052603260045260246000fd5b60200101907effffffffffffffffffffffffffffffffffffffffffffffffffffffffffffff1916908160001a9053507f780000000000000000000000000000000000000000000000000000000000000081600181518110612055577f4e487b7100000000000000000000000000000000000000000000000000000000600052603260045260246000fd5b60200101907effffffffffffffffffffffffffffffffffffffffffffffffffffffffffffff1916908160001a9053506000600184600261209591906132ad565b61209f9190613226565b90505b600181111561218b577f3031323334353637383961626364656600000000000000000000000000000000600f861660108110612107577f4e487b7100000000000000000000000000000000000000000000000000000000600052603260045260246000fd5b1a60f81b828281518110612144577f4e487b7100000000000000000000000000000000000000000000000000000000600052603260045260246000fd5b60200101907effffffffffffffffffffffffffffffffffffffffffffffffffffffffffffff1916908160001a905350600485901c945080612184906133fb565b90506120a2565b50600084146121cf576040517f08c379a00000000000000000000000000000000000000000000000000000000081526004016121c690612ea1565b60405180910390fd5b8091505092915050565b6000808273ffffffffffffffffffffffffffffffffffffffff163b119050919050565b6122068383612257565b6122136000848484611a7b565b612252576040517f08c379a000000000000000000000000000000000000000000000000000000000815260040161224990612ee1565b60405180910390fd5b505050565b600073ffffffffffffffffffffffffffffffffffffffff168273ffffffffffffffffffffffffffffffffffffffff1614156122c7576040517f08c379a00000000000000000000000000000000000000000000000000000000081526004016122be90613041565b60405180910390fd5b6122d081610fd8565b15612310576040517f08c379a000000000000000000000000000000000000000000000000000000000815260040161230790612f21565b60405180910390fd5b61231c600083836119d4565b6001600360008473ffffffffffffffffffffffffffffffffffffffff1673ffffffffffffffffffffffffffffffffffffffff168152602001908152602001600020600082825461236c9190613226565b92505081905550816002600083815260200190815260200160002060006101000a81548173ffffffffffffffffffffffffffffffffffffffff021916908373ffffffffffffffffffffffffffffffffffffffff160217905550808273ffffffffffffffffffffffffffffffffffffffff16600073ffffffffffffffffffffffffffffffffffffffff167fddf252ad1be2c89b69c2b068fc378daa952ba7f163c4a11628f55a4df523b3ef60405160405180910390a461242d600083836119d9565b5050565b82805461243d90613425565b90600052602060002090601f01602090048101928261245f57600085556124a6565b82601f1061247857805160ff19168380011785556124a6565b828001600101855582156124a6579182015b828111156124a557825182559160200191906001019061248a565b5b5090506124b391906124b7565b5090565b5b808211156124d05760008160009055506001016124b8565b5090565b60006124e76124e284613181565b61315c565b9050828152602081018484840111156124ff57600080fd5b61250a8482856133b9565b509392505050565b6000612525612520846131b2565b61315c565b90508281526020810184848401111561253d57600080fd5b6125488482856133b9565b509392505050565b60008135905061255f81613bb8565b92915050565b60008135905061257481613bcf565b92915050565b60008135905061258981613be6565b92915050565b60008135905061259e81613bfd565b92915050565b6000815190506125b381613bfd565b92915050565b600082601f8301126125ca57600080fd5b81356125da8482602086016124d4565b91505092915050565b600082601f8301126125f457600080fd5b8135612604848260208601612512565b91505092915050565b60008135905061261c81613c14565b92915050565b60006020828403121561263457600080fd5b600061264284828501612550565b91505092915050565b6000806040838503121561265e57600080fd5b600061266c85828601612550565b925050602061267d85828601612550565b9150509250929050565b60008060006060848603121561269c57600080fd5b60006126aa86828701612550565b93505060206126bb86828701612550565b92505060406126cc8682870161260d565b9150509250925092565b600080600080608085870312156126ec57600080fd5b60006126fa87828801612550565b945050602061270b87828801612550565b935050604061271c8782880161260d565b925050606085013567ffffffffffffffff81111561273957600080fd5b612745878288016125b9565b91505092959194509250565b6000806040838503121561276457600080fd5b600061277285828601612550565b925050602061278385828601612565565b9150509250929050565b600080604083850312156127a057600080fd5b60006127ae85828601612550565b92505060206127bf8582860161260d565b9150509250929050565b6000602082840312156127db57600080fd5b60006127e98482850161257a565b91505092915050565b6000806040838503121561280557600080fd5b60006128138582860161257a565b925050602061282485828601612550565b9150509250929050565b60006020828403121561284057600080fd5b600061284e8482850161258f565b91505092915050565b60006020828403121561286957600080fd5b6000612877848285016125a4565b91505092915050565b60006020828403121561289257600080fd5b600082013567ffffffffffffffff8111156128ac57600080fd5b6128b8848285016125e3565b91505092915050565b6000806000606084860312156128d657600080fd5b600084013567ffffffffffffffff8111156128f057600080fd5b6128fc868287016125e3565b935050602061290d86828701612550565b925050604084013567ffffffffffffffff81111561292a57600080fd5b612936868287016125e3565b9150509250925092565b60006020828403121561295257600080fd5b60006129608482850161260d565b91505092915050565b6129728161333b565b82525050565b6129818161334d565b82525050565b61299081613359565b82525050565b60006129a1826131e3565b6129ab81856131f9565b93506129bb8185602086016133c8565b6129c4816135be565b840191505092915050565b60006129da826131ee565b6129e4818561320a565b93506129f48185602086016133c8565b6129fd816135be565b840191505092915050565b6000612a13826131ee565b612a1d818561321b565b9350612a2d8185602086016133c8565b80840191505092915050565b6000612a4660208361320a565b9150612a51826135cf565b602082019050919050565b6000612a6960268361320a565b9150612a74826135f8565b604082019050919050565b6000612a8c60328361320a565b9150612a9782613647565b604082019050919050565b6000612aaf60258361320a565b9150612aba82613696565b604082019050919050565b6000612ad2601c8361320a565b9150612add826136e5565b602082019050919050565b6000612af560248361320a565b9150612b008261370e565b604082019050919050565b6000612b1860198361320a565b9150612b238261375d565b602082019050919050565b6000612b3b602c8361320a565b9150612b4682613786565b604082019050919050565b6000612b5e60388361320a565b9150612b69826137d5565b604082019050919050565b6000612b81602a8361320a565b9150612b8c82613824565b604082019050919050565b6000612ba460298361320a565b9150612baf82613873565b604082019050919050565b6000612bc7602e8361320a565b9150612bd2826138c2565b604082019050919050565b6000612bea60158361320a565b9150612bf582613911565b602082019050919050565b6000612c0d60208361320a565b9150612c188261393a565b602082019050919050565b6000612c3060318361320a565b9150612c3b82613963565b604082019050919050565b6000612c53602c8361320a565b9150612c5e826139b2565b604082019050919050565b6000612c76602f8361320a565b9150612c8182613a01565b604082019050919050565b6000612c9960218361320a565b9150612ca482613a50565b604082019050919050565b6000612cbc60318361320a565b9150612cc782613a9f565b604082019050919050565b6000612cdf60178361321b565b9150612cea82613aee565b601782019050919050565b6000612d02600e8361320a565b9150612d0d82613b17565b602082019050919050565b6000612d2560118361321b565b9150612d3082613b40565b601182019050919050565b6000612d48602f8361320a565b9150612d5382613b69565b604082019050919050565b612d67816133af565b82525050565b6000612d798284612a08565b915081905092915050565b6000612d908285612a08565b9150612d9c8284612a08565b91508190509392505050565b6000612db382612cd2565b9150612dbf8285612a08565b9150612dca82612d18565b9150612dd68284612a08565b91508190509392505050565b6000602082019050612df76000830184612969565b92915050565b6000608082019050612e126000830187612969565b612e1f6020830186612969565b612e2c6040830185612d5e565b8181036060830152612e3e8184612996565b905095945050505050565b6000602082019050612e5e6000830184612978565b92915050565b6000602082019050612e796000830184612987565b92915050565b60006020820190508181036000830152612e9981846129cf565b905092915050565b60006020820190508181036000830152612eba81612a39565b9050919050565b60006020820190508181036000830152612eda81612a5c565b9050919050565b60006020820190508181036000830152612efa81612a7f565b9050919050565b60006020820190508181036000830152612f1a81612aa2565b9050919050565b60006020820190508181036000830152612f3a81612ac5565b9050919050565b60006020820190508181036000830152612f5a81612ae8565b9050919050565b60006020820190508181036000830152612f7a81612b0b565b9050919050565b60006020820190508181036000830152612f9a81612b2e565b9050919050565b60006020820190508181036000830152612fba81612b51565b9050919050565b60006020820190508181036000830152612fda81612b74565b9050919050565b60006020820190508181036000830152612ffa81612b97565b9050919050565b6000602082019050818103600083015261301a81612bba565b9050919050565b6000602082019050818103600083015261303a81612bdd565b9050919050565b6000602082019050818103600083015261305a81612c00565b9050919050565b6000602082019050818103600083015261307a81612c23565b9050919050565b6000602082019050818103600083015261309a81612c46565b9050919050565b600060208201905081810360008301526130ba81612c69565b9050919050565b600060208201905081810360008301526130da81612c8c565b9050919050565b600060208201905081810360008301526130fa81612caf565b9050919050565b6000602082019050818103600083015261311a81612cf5565b9050919050565b6000602082019050818103600083015261313a81612d3b565b9050919050565b60006020820190506131566000830184612d5e565b92915050565b6000613166613177565b90506131728282613457565b919050565b6000604051905090565b600067ffffffffffffffff82111561319c5761319b61358f565b5b6131a5826135be565b9050602081019050919050565b600067ffffffffffffffff8211156131cd576131cc61358f565b5b6131d6826135be565b9050602081019050919050565b600081519050919050565b600081519050919050565b600082825260208201905092915050565b600082825260208201905092915050565b600081905092915050565b6000613231826133af565b915061323c836133af565b9250827fffffffffffffffffffffffffffffffffffffffffffffffffffffffffffffffff0382111561327157613270613502565b5b828201905092915050565b6000613287826133af565b9150613292836133af565b9250826132a2576132a1613531565b5b828204905092915050565b60006132b8826133af565b91506132c3836133af565b9250817fffffffffffffffffffffffffffffffffffffffffffffffffffffffffffffffff04831182151516156132fc576132fb613502565b5b828202905092915050565b6000613312826133af565b915061331d836133af565b9250828210156133305761332f613502565b5b828203905092915050565b60006133468261338f565b9050919050565b60008115159050919050565b6000819050919050565b60007fffffffff0000000000000000000000000000000000000000000000000000000082169050919050565b600073ffffffffffffffffffffffffffffffffffffffff82169050919050565b6000819050919050565b82818337600083830152505050565b60005b838110156133e65780820151818401526020810190506133cb565b838111156133f5576000848401525b50505050565b6000613406826133af565b9150600082141561341a57613419613502565b5b600182039050919050565b6000600282049050600182168061343d57607f821691505b6020821081141561345157613450613560565b5b50919050565b613460826135be565b810181811067ffffffffffffffff8211171561347f5761347e61358f565b5b80604052505050565b6000613493826133af565b91507fffffffffffffffffffffffffffffffffffffffffffffffffffffffffffffffff8214156134c6576134c5613502565b5b600182019050919050565b60006134dc826133af565b91506134e7836133af565b9250826134f7576134f6613531565b5b828206905092915050565b7f4e487b7100000000000000000000000000000000000000000000000000000000600052601160045260246000fd5b7f4e487b7100000000000000000000000000000000000000000000000000000000600052601260045260246000fd5b7f4e487b7100000000000000000000000000000000000000000000000000000000600052602260045260246000fd5b7f4e487b7100000000000000000000000000000000000000000000000000000000600052604160045260246000fd5b6000601f19601f8301169050919050565b7f537472696e67733a20686578206c656e67746820696e73756666696369656e74600082015250565b7f43616c6c6572206973206e6f7420616e2057696e646f772041646d696e20286d60008201527f696e746572290000000000000000000000000000000000000000000000000000602082015250565b7f4552433732313a207472616e7366657220746f206e6f6e20455243373231526560008201527f63656976657220696d706c656d656e7465720000000000000000000000000000602082015250565b7f4552433732313a207472616e736665722066726f6d20696e636f72726563742060008201527f6f776e6572000000000000000000000000000000000000000000000000000000602082015250565b7f4552433732313a20746f6b656e20616c7265616479206d696e74656400000000600082015250565b7f4552433732313a207472616e7366657220746f20746865207a65726f2061646460008201527f7265737300000000000000000000000000000000000000000000000000000000602082015250565b7f4552433732313a20617070726f766520746f2063616c6c657200000000000000600082015250565b7f4552433732313a206f70657261746f7220717565727920666f72206e6f6e657860008201527f697374656e7420746f6b656e0000000000000000000000000000000000000000602082015250565b7f4552433732313a20617070726f76652063616c6c6572206973206e6f74206f7760008201527f6e6572206e6f7220617070726f76656420666f7220616c6c0000000000000000602082015250565b7f4552433732313a2062616c616e636520717565727920666f7220746865207a6560008201527f726f206164647265737300000000000000000000000000000000000000000000602082015250565b7f4552433732313a206f776e657220717565727920666f72206e6f6e657869737460008201527f656e7420746f6b656e0000000000000000000000000000000000000000000000602082015250565b7f45524337323155524953746f726167653a2055524920736574206f66206e6f6e60008201527f6578697374656e7420746f6b656e000000000000000000000000000000000000602082015250565b7f4d6f64756c6520616c7265616479206578697374730000000000000000000000600082015250565b7f4552433732313a206d696e7420746f20746865207a65726f2061646472657373600082015250565b7f45524337323155524953746f726167653a2055524920717565727920666f722060008201527f6e6f6e6578697374656e7420746f6b656e000000000000000000000000000000602082015250565b7f4552433732313a20617070726f76656420717565727920666f72206e6f6e657860008201527f697374656e7420746f6b656e0000000000000000000000000000000000000000602082015250565b7f4552433732314d657461646174613a2055524920717565727920666f72206e6f60008201527f6e6578697374656e7420746f6b656e0000000000000000000000000000000000602082015250565b7f4552433732313a20617070726f76616c20746f2063757272656e74206f776e6560008201527f7200000000000000000000000000000000000000000000000000000000000000602082015250565b7f4552433732313a207472616e736665722063616c6c6572206973206e6f74206f60008201527f776e6572206e6f7220617070726f766564000000000000000000000000000000602082015250565b7f416363657373436f6e74726f6c3a206163636f756e7420000000000000000000600082015250565b7f496e76616c6964204d6f64756c65000000000000000000000000000000000000600082015250565b7f206973206d697373696e6720726f6c6520000000000000000000000000000000600082015250565b7f416363657373436f6e74726f6c3a2063616e206f6e6c792072656e6f756e636560008201527f20726f6c657320666f722073656c660000000000000000000000000000000000602082015250565b613bc18161333b565b8114613bcc57600080fd5b50565b613bd88161334d565b8114613be357600080fd5b50565b613bef81613359565b8114613bfa57600080fd5b50565b613c0681613363565b8114613c1157600080fd5b50565b613c1d816133af565b8114613c2857600080fd5b5056fea26469706673582212203fe175f98754135e7f699a785f6beb8f50601704ecf7fdec6acdae6994b70f0f64736f6c63430008040033",
  "linkReferences": {},
  "deployedLinkReferences": {}
}