{
  "_format": "hh-sol-artifact-1",
  "contractName": "MelkTest",
  "sourceName": "contracts/nft.sol",
  "abi": [
    {
      "inputs": [],
      "stateMutability": "nonpayable",
      "type": "constructor"
    },
    {
      "anonymous": false,
      "inputs": [
        {
          "indexed": true,
          "internalType": "address",
          "name": "owner",
          "type": "address"
        },
        {
          "indexed": true,
          "internalType": "address",
          "name": "approved",
          "type": "address"
        },
        {
          "indexed": true,
          "internalType": "uint256",
          "name": "tokenId",
          "type": "uint256"
        }
      ],
      "name": "Approval",
      "type": "event"
    },
    {
      "anonymous": false,
      "inputs": [
        {
          "indexed": true,
          "internalType": "address",
          "name": "owner",
          "type": "address"
        },
        {
          "indexed": true,
          "internalType": "address",
          "name": "operator",
          "type": "address"
        },
        {
          "indexed": false,
          "internalType": "bool",
          "name": "approved",
          "type": "bool"
        }
      ],
      "name": "ApprovalForAll",
      "type": "event"
    },
    {
      "anonymous": false,
      "inputs": [
        {
          "indexed": true,
          "internalType": "bytes32",
          "name": "role",
          "type": "bytes32"
        },
        {
          "indexed": true,
          "internalType": "bytes32",
          "name": "previousAdminRole",
          "type": "bytes32"
        },
        {
          "indexed": true,
          "internalType": "bytes32",
          "name": "newAdminRole",
          "type": "bytes32"
        }
      ],
      "name": "RoleAdminChanged",
      "type": "event"
    },
    {
      "anonymous": false,
      "inputs": [
        {
          "indexed": true,
          "internalType": "bytes32",
          "name": "role",
          "type": "bytes32"
        },
        {
          "indexed": true,
          "internalType": "address",
          "name": "account",
          "type": "address"
        },
        {
          "indexed": true,
          "internalType": "address",
          "name": "sender",
          "type": "address"
        }
      ],
      "name": "RoleGranted",
      "type": "event"
    },
    {
      "anonymous": false,
      "inputs": [
        {
          "indexed": true,
          "internalType": "bytes32",
          "name": "role",
          "type": "bytes32"
        },
        {
          "indexed": true,
          "internalType": "address",
          "name": "account",
          "type": "address"
        },
        {
          "indexed": true,
          "internalType": "address",
          "name": "sender",
          "type": "address"
        }
      ],
      "name": "RoleRevoked",
      "type": "event"
    },
    {
      "anonymous": false,
      "inputs": [
        {
          "indexed": true,
          "internalType": "address",
          "name": "studentAddress",
          "type": "address"
        },
        {
          "indexed": true,
          "internalType": "string",
          "name": "moduleName",
          "type": "string"
        }
      ],
      "name": "StudentFinishedModule",
      "type": "event"
    },
    {
      "anonymous": false,
      "inputs": [
        {
          "indexed": true,
          "internalType": "address",
          "name": "from",
          "type": "address"
        },
        {
          "indexed": true,
          "internalType": "address",
          "name": "to",
          "type": "address"
        },
        {
          "indexed": true,
          "internalType": "uint256",
          "name": "tokenId",
          "type": "uint256"
        }
      ],
      "name": "Transfer",
      "type": "event"
    },
    {
      "inputs": [],
      "name": "DEFAULT_ADMIN_ROLE",
      "outputs": [
        {
          "internalType": "bytes32",
          "name": "",
          "type": "bytes32"
        }
      ],
      "stateMutability": "view",
      "type": "function"
    },
    {
      "inputs": [
        {
          "internalType": "uint256",
          "name": "tokenId",
          "type": "uint256"
        },
        {
          "internalType": "string",
          "name": "username",
          "type": "string"
        },
        {
          "internalType": "address",
          "name": "walletAddress",
          "type": "address"
        }
      ],
      "name": "_setTokenURI",
      "outputs": [
        {
          "internalType": "string",
          "name": "",
          "type": "string"
        }
      ],
      "stateMutability": "view",
      "type": "function"
    },
    {
      "inputs": [
        {
          "internalType": "string",
          "name": "newModule",
          "type": "string"
        },
        {
          "internalType": "string",
          "name": "description",
          "type": "string"
        }
      ],
      "name": "addModule",
      "outputs": [],
      "stateMutability": "nonpayable",
      "type": "function"
    },
    {
      "inputs": [
        {
          "internalType": "address",
          "name": "to",
          "type": "address"
        },
        {
          "internalType": "uint256",
          "name": "tokenId",
          "type": "uint256"
        }
      ],
      "name": "approve",
      "outputs": [],
      "stateMutability": "nonpayable",
      "type": "function"
    },
    {
      "inputs": [
        {
          "internalType": "address",
          "name": "owner",
          "type": "address"
        }
      ],
      "name": "balanceOf",
      "outputs": [
        {
          "internalType": "uint256",
          "name": "",
          "type": "uint256"
        }
      ],
      "stateMutability": "view",
      "type": "function"
    },
    {
      "inputs": [
        {
          "internalType": "uint256",
          "name": "tokenId",
          "type": "uint256"
        }
      ],
      "name": "getApproved",
      "outputs": [
        {
          "internalType": "address",
          "name": "",
          "type": "address"
        }
      ],
      "stateMutability": "view",
      "type": "function"
    },
    {
      "inputs": [
        {
          "internalType": "bytes32",
          "name": "role",
          "type": "bytes32"
        }
      ],
      "name": "getRoleAdmin",
      "outputs": [
        {
          "internalType": "bytes32",
          "name": "",
          "type": "bytes32"
        }
      ],
      "stateMutability": "view",
      "type": "function"
    },
    {
      "inputs": [
        {
          "internalType": "bytes32",
          "name": "role",
          "type": "bytes32"
        },
        {
          "internalType": "address",
          "name": "account",
          "type": "address"
        }
      ],
      "name": "grantRole",
      "outputs": [],
      "stateMutability": "nonpayable",
      "type": "function"
    },
    {
      "inputs": [
        {
          "internalType": "bytes32",
          "name": "role",
          "type": "bytes32"
        },
        {
          "internalType": "address",
          "name": "account",
          "type": "address"
        }
      ],
      "name": "hasRole",
      "outputs": [
        {
          "internalType": "bool",
          "name": "",
          "type": "bool"
        }
      ],
      "stateMutability": "view",
      "type": "function"
    },
    {
      "inputs": [
        {
          "internalType": "address",
          "name": "owner",
          "type": "address"
        },
        {
          "internalType": "address",
          "name": "operator",
          "type": "address"
        }
      ],
      "name": "isApprovedForAll",
      "outputs": [
        {
          "internalType": "bool",
          "name": "",
          "type": "bool"
        }
      ],
      "stateMutability": "view",
      "type": "function"
    },
    {
      "inputs": [
        {
          "internalType": "string",
          "name": "course",
          "type": "string"
        },
        {
          "internalType": "address",
          "name": "studentAddress",
          "type": "address"
        },
        {
          "internalType": "string",
          "name": "username",
          "type": "string"
        }
      ],
      "name": "mintCertificate",
      "outputs": [],
      "stateMutability": "nonpayable",
      "type": "function"
    },
    {
      "inputs": [],
      "name": "name",
      "outputs": [
        {
          "internalType": "string",
          "name": "",
          "type": "string"
        }
      ],
      "stateMutability": "view",
      "type": "function"
    },
    {
      "inputs": [
        {
          "internalType": "uint256",
          "name": "tokenId",
          "type": "uint256"
        }
      ],
      "name": "ownerOf",
      "outputs": [
        {
          "internalType": "address",
          "name": "",
          "type": "address"
        }
      ],
      "stateMutability": "view",
      "type": "function"
    },
    {
      "inputs": [
        {
          "internalType": "bytes32",
          "name": "role",
          "type": "bytes32"
        },
        {
          "internalType": "address",
          "name": "account",
          "type": "address"
        }
      ],
      "name": "renounceRole",
      "outputs": [],
      "stateMutability": "nonpayable",
      "type": "function"
    },
    {
      "inputs": [
        {
          "internalType": "bytes32",
          "name": "role",
          "type": "bytes32"
        },
        {
          "internalType": "address",
          "name": "account",
          "type": "address"
        }
      ],
      "name": "revokeRole",
      "outputs": [],
      "stateMutability": "nonpayable",
      "type": "function"
    },
    {
      "inputs": [
        {
          "internalType": "address",
          "name": "from",
          "type": "address"
        },
        {
          "internalType": "address",
          "name": "to",
          "type": "address"
        },
        {
          "internalType": "uint256",
          "name": "tokenId",
          "type": "uint256"
        }
      ],
      "name": "safeTransferFrom",
      "outputs": [],
      "stateMutability": "nonpayable",
      "type": "function"
    },
    {
      "inputs": [
        {
          "internalType": "address",
          "name": "from",
          "type": "address"
        },
        {
          "internalType": "address",
          "name": "to",
          "type": "address"
        },
        {
          "internalType": "uint256",
          "name": "tokenId",
          "type": "uint256"
        },
        {
          "internalType": "bytes",
          "name": "_data",
          "type": "bytes"
        }
      ],
      "name": "safeTransferFrom",
      "outputs": [],
      "stateMutability": "nonpayable",
      "type": "function"
    },
    {
      "inputs": [
        {
          "internalType": "address",
          "name": "operator",
          "type": "address"
        },
        {
          "internalType": "bool",
          "name": "approved",
          "type": "bool"
        }
      ],
      "name": "setApprovalForAll",
      "outputs": [],
      "stateMutability": "nonpayable",
      "type": "function"
    },
    {
      "inputs": [
        {
          "internalType": "bytes4",
          "name": "interfaceId",
          "type": "bytes4"
        }
      ],
      "name": "supportsInterface",
      "outputs": [
        {
          "internalType": "bool",
          "name": "",
          "type": "bool"
        }
      ],
      "stateMutability": "view",
      "type": "function"
    },
    {
      "inputs": [],
      "name": "symbol",
      "outputs": [
        {
          "internalType": "string",
          "name": "",
          "type": "string"
        }
      ],
      "stateMutability": "view",
      "type": "function"
    },
    {
      "inputs": [
        {
          "internalType": "uint256",
          "name": "tokenId",
          "type": "uint256"
        }
      ],
      "name": "tokenURI",
      "outputs": [
        {
          "internalType": "string",
          "name": "",
          "type": "string"
        }
      ],
      "stateMutability": "view",
      "type": "function"
    },
    {
      "inputs": [
        {
          "internalType": "address",
          "name": "from",
          "type": "address"
        },
        {
          "internalType": "address",
          "name": "to",
          "type": "address"
        },
        {
          "internalType": "uint256",
          "name": "tokenId",
          "type": "uint256"
        }
      ],
      "name": "transferFrom",
      "outputs": [],
      "stateMutability": "nonpayable",
      "type": "function"
    }
  ],
  "bytecode": "0x608060405260405180610160016040528061012d815260200162004b7161012d9139600e9080519060200190620000389291906200034c565b5060405180613b200160405280613afb815260200162004c9e613afb9139600f90805190602001906200006d9291906200034c565b5060405180610100016040528060c881526020016200879960c8913960109080519060200190620000a09291906200034c565b506040518060c00160405280609e815260200162008861609e913960119080519060200190620000d29291906200034c565b50604051806101c0016040528061018e8152602001620049e361018e913960129080519060200190620001079291906200034c565b503480156200011557600080fd5b506040518060400160405280600c81526020017f50726f6a65746f204d454c4b00000000000000000000000000000000000000008152506040518060400160405280600481526020017f4d454c4b0000000000000000000000000000000000000000000000000000000081525081600090805190602001906200019a9291906200034c565b508060019080519060200190620001b39291906200034c565b505050620001cb6000801b33620001d160201b60201c565b62000461565b620001e38282620001e760201b60201c565b5050565b620001f98282620002d960201b60201c565b620002d55760016007600084815260200190815260200160002060000160008373ffffffffffffffffffffffffffffffffffffffff1673ffffffffffffffffffffffffffffffffffffffff16815260200190815260200160002060006101000a81548160ff0219169083151502179055506200027a6200034460201b60201c565b73ffffffffffffffffffffffffffffffffffffffff168173ffffffffffffffffffffffffffffffffffffffff16837f2f8788117e7eff1d82e926ec794901d17c78024a50270940304540a733656f0d60405160405180910390a45b5050565b60006007600084815260200190815260200160002060000160008373ffffffffffffffffffffffffffffffffffffffff1673ffffffffffffffffffffffffffffffffffffffff16815260200190815260200160002060009054906101000a900460ff16905092915050565b600033905090565b8280546200035a90620003fc565b90600052602060002090601f0160209004810192826200037e5760008555620003ca565b82601f106200039957805160ff1916838001178555620003ca565b82800160010185558215620003ca579182015b82811115620003c9578251825591602001919060010190620003ac565b5b509050620003d99190620003dd565b5090565b5b80821115620003f8576000816000905550600101620003de565b5090565b600060028204905060018216806200041557607f821691505b602082108114156200042c576200042b62000432565b5b50919050565b7f4e487b7100000000000000000000000000000000000000000000000000000000600052602260045260246000fd5b61457280620004716000396000f3fe608060405234801561001057600080fd5b50600436106101425760003560e01c806391d14854116100b8578063c87b56dd1161007c578063c87b56dd14610385578063cec1bfe1146103b5578063d547741f146103e5578063d7b28dfc14610401578063e0d6b0841461041d578063e985e9c51461043957610142565b806391d14854146102e157806395d89b4114610311578063a217fddf1461032f578063a22cb4651461034d578063b88d4fde1461036957610142565b8063248a9ca31161010a578063248a9ca3146101fd5780632f2ff15d1461022d57806336568abe1461024957806342842e0e146102655780636352211e1461028157806370a08231146102b157610142565b806301ffc9a71461014757806306fdde0314610177578063081812fc14610195578063095ea7b3146101c557806323b872dd146101e1575b600080fd5b610161600480360381019061015c9190612c7a565b610469565b60405161016e91906135ba565b60405180910390f35b61017f61047b565b60405161018c91906135f0565b60405180910390f35b6101af60048036038101906101aa9190612db7565b61050d565b6040516101bc9190613553565b60405180910390f35b6101df60048036038101906101da9190612bd9565b610592565b005b6101fb60048036038101906101f69190612ad3565b6106aa565b005b61021760048036038101906102129190612c15565b61070a565b60405161022491906135d5565b60405180910390f35b61024760048036038101906102429190612c3e565b61072a565b005b610263600480360381019061025e9190612c3e565b61074b565b005b61027f600480360381019061027a9190612ad3565b6107ce565b005b61029b60048036038101906102969190612db7565b6107ee565b6040516102a89190613553565b60405180910390f35b6102cb60048036038101906102c69190612a6e565b6108a0565b6040516102d89190613892565b60405180910390f35b6102fb60048036038101906102f69190612c3e565b610958565b60405161030891906135ba565b60405180910390f35b6103196109c3565b60405161032691906135f0565b60405180910390f35b610337610a55565b60405161034491906135d5565b60405180910390f35b61036760048036038101906103629190612b9d565b610a5c565b005b610383600480360381019061037e9190612b22565b610a72565b005b61039f600480360381019061039a9190612db7565b610ad4565b6040516103ac91906135f0565b60405180910390f35b6103cf60048036038101906103ca9190612de0565b610c26565b6040516103dc91906135f0565b60405180910390f35b6103ff60048036038101906103fa9190612c3e565b610df6565b005b61041b60048036038101906104169190612ccc565b610e17565b005b61043760048036038101906104329190612d4b565b610fda565b005b610453600480360381019061044e9190612a97565b611108565b60405161046091906135ba565b60405180910390f35b60006104748261119c565b9050919050565b60606000805461048a90613b8b565b80601f01602080910402602001604051908101604052809291908181526020018280546104b690613b8b565b80156105035780601f106104d857610100808354040283529160200191610503565b820191906000526020600020905b8154815290600101906020018083116104e657829003601f168201915b5050505050905090565b600061051882611216565b610557576040517f08c379a000000000000000000000000000000000000000000000000000000000815260040161054e906137d2565b60405180910390fd5b6004600083815260200190815260200160002060009054906101000a900473ffffffffffffffffffffffffffffffffffffffff169050919050565b600061059d826107ee565b90508073ffffffffffffffffffffffffffffffffffffffff168373ffffffffffffffffffffffffffffffffffffffff16141561060e576040517f08c379a000000000000000000000000000000000000000000000000000000000815260040161060590613812565b60405180910390fd5b8073ffffffffffffffffffffffffffffffffffffffff1661062d611282565b73ffffffffffffffffffffffffffffffffffffffff16148061065c575061065b81610656611282565b611108565b5b61069b576040517f08c379a0000000000000000000000000000000000000000000000000000000008152600401610692906136f2565b60405180910390fd5b6106a5838361128a565b505050565b6106bb6106b5611282565b82611343565b6106fa576040517f08c379a00000000000000000000000000000000000000000000000000000000081526004016106f190613832565b60405180910390fd5b610705838383611421565b505050565b600060076000838152602001908152602001600020600101549050919050565b6107338261070a565b61073c81611688565b610746838361169c565b505050565b610753611282565b73ffffffffffffffffffffffffffffffffffffffff168173ffffffffffffffffffffffffffffffffffffffff16146107c0576040517f08c379a00000000000000000000000000000000000000000000000000000000081526004016107b790613872565b60405180910390fd5b6107ca828261177d565b5050565b6107e983838360405180602001604052806000815250610a72565b505050565b6000806002600084815260200190815260200160002060009054906101000a900473ffffffffffffffffffffffffffffffffffffffff169050600073ffffffffffffffffffffffffffffffffffffffff168173ffffffffffffffffffffffffffffffffffffffff161415610897576040517f08c379a000000000000000000000000000000000000000000000000000000000815260040161088e90613732565b60405180910390fd5b80915050919050565b60008073ffffffffffffffffffffffffffffffffffffffff168273ffffffffffffffffffffffffffffffffffffffff161415610911576040517f08c379a000000000000000000000000000000000000000000000000000000000815260040161090890613712565b60405180910390fd5b600360008373ffffffffffffffffffffffffffffffffffffffff1673ffffffffffffffffffffffffffffffffffffffff168152602001908152602001600020549050919050565b60006007600084815260200190815260200160002060000160008373ffffffffffffffffffffffffffffffffffffffff1673ffffffffffffffffffffffffffffffffffffffff16815260200190815260200160002060009054906101000a900460ff16905092915050565b6060600180546109d290613b8b565b80601f01602080910402602001604051908101604052809291908181526020018280546109fe90613b8b565b8015610a4b5780601f10610a2057610100808354040283529160200191610a4b565b820191906000526020600020905b815481529060010190602001808311610a2e57829003601f168201915b5050505050905090565b6000801b81565b610a6e610a67611282565b838361185f565b5050565b610a83610a7d611282565b83611343565b610ac2576040517f08c379a0000000000000000000000000000000000000000000000000000000008152600401610ab990613832565b60405180910390fd5b610ace848484846119cc565b50505050565b6060610adf82611216565b610b1e576040517f08c379a0000000000000000000000000000000000000000000000000000000008152600401610b15906137b2565b60405180910390fd5b6000600660008481526020019081526020016000208054610b3e90613b8b565b80601f0160208091040260200160405190810160405280929190818152602001828054610b6a90613b8b565b8015610bb75780601f10610b8c57610100808354040283529160200191610bb7565b820191906000526020600020905b815481529060010190602001808311610b9a57829003601f168201915b505050505090506000610bc8611a28565b9050600081511415610bde578192505050610c21565b600082511115610c13578082604051602001610bfb9291906133d6565b60405160208183030381529060405292505050610c21565b610c1c84611a3f565b925050505b919050565b60606000600a6000600c60008881526020019081526020016000205481526020019081526020016000208054610c5b90613b8b565b80601f0160208091040260200160405190810160405280929190818152602001828054610c8790613b8b565b8015610cd45780601f10610ca957610100808354040283529160200191610cd4565b820191906000526020600020905b815481529060010190602001808311610cb757829003601f168201915b5050505050905060008590506000600f836010610cf085611ae6565b60118a6012604051602001610d0b97969594939291906133fa565b604051602081830303815290604052905060006040518060400160405280600481526020017f6162636400000000000000000000000000000000000000000000000000000000815250905060008488610d6386611ae6565b84610d6d87611c93565b604051602001610d8195949392919061345f565b60405160208183030381529060405290506000610d9d82611c93565b9050610dc781604051602001610db391906134f7565b604051602081830303815290604052611e51565b80604051602001610dd891906134f7565b60405160208183030381529060405296505050505050509392505050565b610dff8261070a565b610e0881611688565b610e12838361177d565b505050565b610e246000801b33610958565b610e63576040517f08c379a0000000000000000000000000000000000000000000000000000000008152600401610e5a90613792565b60405180910390fd5b600983604051610e7391906133bf565b9081526020016040518091039020829080600181540180825580915050600190039060005260206000200160009091909190916101000a81548173ffffffffffffffffffffffffffffffffffffffff021916908373ffffffffffffffffffffffffffffffffffffffff160217905550600083604051602001610ef591906133bf565b6040516020818303038152906040528051906020012090506000600b60008381526020019081526020016000208054610f2d90613b8b565b90501415610f70576040517f08c379a0000000000000000000000000000000000000000000000000000000008152600401610f6790613852565b60405180910390fd5b610f7b818385611eea565b83604051610f8991906133bf565b60405180910390208373ffffffffffffffffffffffffffffffffffffffff167f9a74ae31088328129495d981336d8ddd91174bc214987d17490e3500291bcd9d60405160405180910390a350505050565b610fe76000801b33610958565b611026576040517f08c379a000000000000000000000000000000000000000000000000000000000815260040161101d90613792565b60405180910390fd5b60008260405160200161103991906133bf565b6040516020818303038152906040528051906020012090506000600b6000838152602001908152602001600020805461107190613b8b565b9050146110b3576040517f08c379a00000000000000000000000000000000000000000000000000000000081526004016110aa90613752565b60405180910390fd5b81600b600083815260200190815260200160002090805190602001906110da92919061287d565b5082600a6000838152602001908152602001600020908051906020019061110292919061287d565b50505050565b6000600560008473ffffffffffffffffffffffffffffffffffffffff1673ffffffffffffffffffffffffffffffffffffffff16815260200190815260200160002060008373ffffffffffffffffffffffffffffffffffffffff1673ffffffffffffffffffffffffffffffffffffffff16815260200190815260200160002060009054906101000a900460ff16905092915050565b60007f7965db0b000000000000000000000000000000000000000000000000000000007bffffffffffffffffffffffffffffffffffffffffffffffffffffffff1916827bffffffffffffffffffffffffffffffffffffffffffffffffffffffff1916148061120f575061120e82611f36565b5b9050919050565b60008073ffffffffffffffffffffffffffffffffffffffff166002600084815260200190815260200160002060009054906101000a900473ffffffffffffffffffffffffffffffffffffffff1673ffffffffffffffffffffffffffffffffffffffff1614159050919050565b600033905090565b816004600083815260200190815260200160002060006101000a81548173ffffffffffffffffffffffffffffffffffffffff021916908373ffffffffffffffffffffffffffffffffffffffff160217905550808273ffffffffffffffffffffffffffffffffffffffff166112fd836107ee565b73ffffffffffffffffffffffffffffffffffffffff167f8c5be1e5ebec7d5bd14f71427d1e84f3dd0314c0f7b2291e5b200ac8c7c3b92560405160405180910390a45050565b600061134e82611216565b61138d576040517f08c379a0000000000000000000000000000000000000000000000000000000008152600401611384906136d2565b60405180910390fd5b6000611398836107ee565b90508073ffffffffffffffffffffffffffffffffffffffff168473ffffffffffffffffffffffffffffffffffffffff1614806113da57506113d98185611108565b5b8061141857508373ffffffffffffffffffffffffffffffffffffffff166114008461050d565b73ffffffffffffffffffffffffffffffffffffffff16145b91505092915050565b8273ffffffffffffffffffffffffffffffffffffffff16611441826107ee565b73ffffffffffffffffffffffffffffffffffffffff1614611497576040517f08c379a000000000000000000000000000000000000000000000000000000000815260040161148e90613652565b60405180910390fd5b600073ffffffffffffffffffffffffffffffffffffffff168273ffffffffffffffffffffffffffffffffffffffff161415611507576040517f08c379a00000000000000000000000000000000000000000000000000000000081526004016114fe90613692565b60405180910390fd5b611512838383612018565b61151d60008261128a565b6001600360008573ffffffffffffffffffffffffffffffffffffffff1673ffffffffffffffffffffffffffffffffffffffff168152602001908152602001600020600082825461156d9190613a6d565b925050819055506001600360008473ffffffffffffffffffffffffffffffffffffffff1673ffffffffffffffffffffffffffffffffffffffff16815260200190815260200160002060008282546115c4919061398c565b92505081905550816002600083815260200190815260200160002060006101000a81548173ffffffffffffffffffffffffffffffffffffffff021916908373ffffffffffffffffffffffffffffffffffffffff160217905550808273ffffffffffffffffffffffffffffffffffffffff168473ffffffffffffffffffffffffffffffffffffffff167fddf252ad1be2c89b69c2b068fc378daa952ba7f163c4a11628f55a4df523b3ef60405160405180910390a461168383838361201d565b505050565b61169981611694611282565b612022565b50565b6116a68282610958565b6117795760016007600084815260200190815260200160002060000160008373ffffffffffffffffffffffffffffffffffffffff1673ffffffffffffffffffffffffffffffffffffffff16815260200190815260200160002060006101000a81548160ff02191690831515021790555061171e611282565b73ffffffffffffffffffffffffffffffffffffffff168173ffffffffffffffffffffffffffffffffffffffff16837f2f8788117e7eff1d82e926ec794901d17c78024a50270940304540a733656f0d60405160405180910390a45b5050565b6117878282610958565b1561185b5760006007600084815260200190815260200160002060000160008373ffffffffffffffffffffffffffffffffffffffff1673ffffffffffffffffffffffffffffffffffffffff16815260200190815260200160002060006101000a81548160ff021916908315150217905550611800611282565b73ffffffffffffffffffffffffffffffffffffffff168173ffffffffffffffffffffffffffffffffffffffff16837ff6391f5c32d9c69d2a47ea670b442974b53935d1edc7fd64eb21e047a839171b60405160405180910390a45b5050565b8173ffffffffffffffffffffffffffffffffffffffff168373ffffffffffffffffffffffffffffffffffffffff1614156118ce576040517f08c379a00000000000000000000000000000000000000000000000000000000081526004016118c5906136b2565b60405180910390fd5b80600560008573ffffffffffffffffffffffffffffffffffffffff1673ffffffffffffffffffffffffffffffffffffffff16815260200190815260200160002060008473ffffffffffffffffffffffffffffffffffffffff1673ffffffffffffffffffffffffffffffffffffffff16815260200190815260200160002060006101000a81548160ff0219169083151502179055508173ffffffffffffffffffffffffffffffffffffffff168373ffffffffffffffffffffffffffffffffffffffff167f17307eab39ab6107e8899845ad3d59bd9653f200f220920489ca2b5937696c31836040516119bf91906135ba565b60405180910390a3505050565b6119d7848484611421565b6119e3848484846120bf565b611a22576040517f08c379a0000000000000000000000000000000000000000000000000000000008152600401611a1990613632565b60405180910390fd5b50505050565b606060405180602001604052806000815250905090565b6060611a4a82611216565b611a89576040517f08c379a0000000000000000000000000000000000000000000000000000000008152600401611a80906137f2565b60405180910390fd5b6000611a93611a28565b90506000815111611ab35760405180602001604052806000815250611ade565b80611abd84611ae6565b604051602001611ace9291906133d6565b6040516020818303038152906040525b915050919050565b60606000821415611b2e576040518060400160405280600181526020017f30000000000000000000000000000000000000000000000000000000000000008152509050611c8e565b600082905060005b60008214611b60578080611b4990613bee565b915050600a82611b5991906139e2565b9150611b36565b60008167ffffffffffffffff811115611ba2577f4e487b7100000000000000000000000000000000000000000000000000000000600052604160045260246000fd5b6040519080825280601f01601f191660200182016040528015611bd45781602001600182028036833780820191505090505b5090505b60008514611c8757600182611bed9190613a6d565b9150600a85611bfc9190613c37565b6030611c08919061398c565b60f81b818381518110611c44577f4e487b7100000000000000000000000000000000000000000000000000000000600052603260045260246000fd5b60200101907effffffffffffffffffffffffffffffffffffffffffffffffffffffffffffff1916908160001a905350600a85611c8091906139e2565b9450611bd8565b8093505050505b919050565b60606000825190506000811415611cbc5760405180602001604052806000815250915050611e4c565b60006003600283611ccd919061398c565b611cd791906139e2565b6004611ce39190613a13565b90506000602082611cf4919061398c565b67ffffffffffffffff811115611d33577f4e487b7100000000000000000000000000000000000000000000000000000000600052604160045260246000fd5b6040519080825280601f01601f191660200182016040528015611d655781602001600182028036833780820191505090505b50905060006040518060600160405280604081526020016144fd604091399050600181016020830160005b86811015611e095760038101905062ffffff818a015116603f8160121c168401518060081b905060ff603f83600c1c1686015116810190508060081b905060ff603f8360061c1686015116810190508060081b905060ff603f831686015116810190508060e01b90508084526004840193505050611d90565b506003860660018114611e235760028114611e3357611e3e565b613d3d60f01b6002830352611e3e565b603d60f81b60018303525b508484525050819450505050505b919050565b611ee781604051602401611e6591906135f0565b6040516020818303038152906040527f41304fac000000000000000000000000000000000000000000000000000000007bffffffffffffffffffffffffffffffffffffffffffffffffffffffff19166020820180517bffffffffffffffffffffffffffffffffffffffffffffffffffffffff8381831617835250505050612256565b50565b611ef4600861227f565b6000611f006008612295565b905083600c600083815260200190815260200160002081905550611f2482826122a3565b611f2f818484610c26565b5050505050565b60007f80ac58cd000000000000000000000000000000000000000000000000000000007bffffffffffffffffffffffffffffffffffffffffffffffffffffffff1916827bffffffffffffffffffffffffffffffffffffffffffffffffffffffff1916148061200157507f5b5e139f000000000000000000000000000000000000000000000000000000007bffffffffffffffffffffffffffffffffffffffffffffffffffffffff1916827bffffffffffffffffffffffffffffffffffffffffffffffffffffffff1916145b806120115750612010826122c1565b5b9050919050565b505050565b505050565b61202c8282610958565b6120bb576120518173ffffffffffffffffffffffffffffffffffffffff16601461232b565b61205f8360001c602061232b565b604051602001612070929190613519565b6040516020818303038152906040526040517f08c379a00000000000000000000000000000000000000000000000000000000081526004016120b291906135f0565b60405180910390fd5b5050565b60006120e08473ffffffffffffffffffffffffffffffffffffffff16612625565b15612249578373ffffffffffffffffffffffffffffffffffffffff1663150b7a02612109611282565b8786866040518563ffffffff1660e01b815260040161212b949392919061356e565b602060405180830381600087803b15801561214557600080fd5b505af192505050801561217657506040513d601f19601f820116820180604052508101906121739190612ca3565b60015b6121f9573d80600081146121a6576040519150601f19603f3d011682016040523d82523d6000602084013e6121ab565b606091505b506000815114156121f1576040517f08c379a00000000000000000000000000000000000000000000000000000000081526004016121e890613632565b60405180910390fd5b805181602001fd5b63150b7a0260e01b7bffffffffffffffffffffffffffffffffffffffffffffffffffffffff1916817bffffffffffffffffffffffffffffffffffffffffffffffffffffffff19161491505061224e565b600190505b949350505050565b60008151905060006a636f6e736f6c652e6c6f679050602083016000808483855afa5050505050565b6001816000016000828254019250508190555050565b600081600001549050919050565b6122bd828260405180602001604052806000815250612648565b5050565b60007f01ffc9a7000000000000000000000000000000000000000000000000000000007bffffffffffffffffffffffffffffffffffffffffffffffffffffffff1916827bffffffffffffffffffffffffffffffffffffffffffffffffffffffff1916149050919050565b60606000600283600261233e9190613a13565b612348919061398c565b67ffffffffffffffff811115612387577f4e487b7100000000000000000000000000000000000000000000000000000000600052604160045260246000fd5b6040519080825280601f01601f1916602001820160405280156123b95781602001600182028036833780820191505090505b5090507f300000000000000000000000000000000000000000000000000000000000000081600081518110612417577f4e487b7100000000000000000000000000000000000000000000000000000000600052603260045260246000fd5b60200101907effffffffffffffffffffffffffffffffffffffffffffffffffffffffffffff1916908160001a9053507f7800000000000000000000000000000000000000000000000000000000000000816001815181106124a1577f4e487b7100000000000000000000000000000000000000000000000000000000600052603260045260246000fd5b60200101907effffffffffffffffffffffffffffffffffffffffffffffffffffffffffffff1916908160001a905350600060018460026124e19190613a13565b6124eb919061398c565b90505b60018111156125d7577f3031323334353637383961626364656600000000000000000000000000000000600f861660108110612553577f4e487b7100000000000000000000000000000000000000000000000000000000600052603260045260246000fd5b1a60f81b828281518110612590577f4e487b7100000000000000000000000000000000000000000000000000000000600052603260045260246000fd5b60200101907effffffffffffffffffffffffffffffffffffffffffffffffffffffffffffff1916908160001a905350600485901c9450806125d090613b61565b90506124ee565b506000841461261b576040517f08c379a000000000000000000000000000000000000000000000000000000000815260040161261290613612565b60405180910390fd5b8091505092915050565b6000808273ffffffffffffffffffffffffffffffffffffffff163b119050919050565b61265283836126a3565b61265f60008484846120bf565b61269e576040517f08c379a000000000000000000000000000000000000000000000000000000000815260040161269590613632565b60405180910390fd5b505050565b600073ffffffffffffffffffffffffffffffffffffffff168273ffffffffffffffffffffffffffffffffffffffff161415612713576040517f08c379a000000000000000000000000000000000000000000000000000000000815260040161270a90613772565b60405180910390fd5b61271c81611216565b1561275c576040517f08c379a000000000000000000000000000000000000000000000000000000000815260040161275390613672565b60405180910390fd5b61276860008383612018565b6001600360008473ffffffffffffffffffffffffffffffffffffffff1673ffffffffffffffffffffffffffffffffffffffff16815260200190815260200160002060008282546127b8919061398c565b92505081905550816002600083815260200190815260200160002060006101000a81548173ffffffffffffffffffffffffffffffffffffffff021916908373ffffffffffffffffffffffffffffffffffffffff160217905550808273ffffffffffffffffffffffffffffffffffffffff16600073ffffffffffffffffffffffffffffffffffffffff167fddf252ad1be2c89b69c2b068fc378daa952ba7f163c4a11628f55a4df523b3ef60405160405180910390a46128796000838361201d565b5050565b82805461288990613b8b565b90600052602060002090601f0160209004810192826128ab57600085556128f2565b82601f106128c457805160ff19168380011785556128f2565b828001600101855582156128f2579182015b828111156128f15782518255916020019190600101906128d6565b5b5090506128ff9190612903565b5090565b5b8082111561291c576000816000905550600101612904565b5090565b600061293361292e846138d2565b6138ad565b90508281526020810184848401111561294b57600080fd5b612956848285613b1f565b509392505050565b600061297161296c84613903565b6138ad565b90508281526020810184848401111561298957600080fd5b612994848285613b1f565b509392505050565b6000813590506129ab81614489565b92915050565b6000813590506129c0816144a0565b92915050565b6000813590506129d5816144b7565b92915050565b6000813590506129ea816144ce565b92915050565b6000815190506129ff816144ce565b92915050565b600082601f830112612a1657600080fd5b8135612a26848260208601612920565b91505092915050565b600082601f830112612a4057600080fd5b8135612a5084826020860161295e565b91505092915050565b600081359050612a68816144e5565b92915050565b600060208284031215612a8057600080fd5b6000612a8e8482850161299c565b91505092915050565b60008060408385031215612aaa57600080fd5b6000612ab88582860161299c565b9250506020612ac98582860161299c565b9150509250929050565b600080600060608486031215612ae857600080fd5b6000612af68682870161299c565b9350506020612b078682870161299c565b9250506040612b1886828701612a59565b9150509250925092565b60008060008060808587031215612b3857600080fd5b6000612b468782880161299c565b9450506020612b578782880161299c565b9350506040612b6887828801612a59565b925050606085013567ffffffffffffffff811115612b8557600080fd5b612b9187828801612a05565b91505092959194509250565b60008060408385031215612bb057600080fd5b6000612bbe8582860161299c565b9250506020612bcf858286016129b1565b9150509250929050565b60008060408385031215612bec57600080fd5b6000612bfa8582860161299c565b9250506020612c0b85828601612a59565b9150509250929050565b600060208284031215612c2757600080fd5b6000612c35848285016129c6565b91505092915050565b60008060408385031215612c5157600080fd5b6000612c5f858286016129c6565b9250506020612c708582860161299c565b9150509250929050565b600060208284031215612c8c57600080fd5b6000612c9a848285016129db565b91505092915050565b600060208284031215612cb557600080fd5b6000612cc3848285016129f0565b91505092915050565b600080600060608486031215612ce157600080fd5b600084013567ffffffffffffffff811115612cfb57600080fd5b612d0786828701612a2f565b9350506020612d188682870161299c565b925050604084013567ffffffffffffffff811115612d3557600080fd5b612d4186828701612a2f565b9150509250925092565b60008060408385031215612d5e57600080fd5b600083013567ffffffffffffffff811115612d7857600080fd5b612d8485828601612a2f565b925050602083013567ffffffffffffffff811115612da157600080fd5b612dad85828601612a2f565b9150509250929050565b600060208284031215612dc957600080fd5b6000612dd784828501612a59565b91505092915050565b600080600060608486031215612df557600080fd5b6000612e0386828701612a59565b935050602084013567ffffffffffffffff811115612e2057600080fd5b612e2c86828701612a2f565b9250506040612e3d8682870161299c565b9150509250925092565b612e5081613aa1565b82525050565b612e5f81613ab3565b82525050565b612e6e81613abf565b82525050565b6000612e7f82613949565b612e89818561395f565b9350612e99818560208601613b2e565b612ea281613d24565b840191505092915050565b6000612eb882613954565b612ec28185613970565b9350612ed2818560208601613b2e565b612edb81613d24565b840191505092915050565b6000612ef182613954565b612efb8185613981565b9350612f0b818560208601613b2e565b80840191505092915050565b60008154612f2481613b8b565b612f2e8186613981565b94506001821660008114612f495760018114612f5a57612f8d565b60ff19831686528186019350612f8d565b612f6385613934565b60005b83811015612f8557815481890152600182019150602081019050612f66565b838801955050505b50505092915050565b6000612fa3602083613970565b9150612fae82613d35565b602082019050919050565b6000612fc6601d83613981565b9150612fd182613d5e565b601d82019050919050565b6000612fe9603283613970565b9150612ff482613d87565b604082019050919050565b600061300c602583613970565b915061301782613dd6565b604082019050919050565b600061302f601c83613970565b915061303a82613e25565b602082019050919050565b6000613052602483613970565b915061305d82613e4e565b604082019050919050565b6000613075602683613981565b915061308082613e9d565b602682019050919050565b6000613098601983613970565b91506130a382613eec565b602082019050919050565b60006130bb602c83613970565b91506130c682613f15565b604082019050919050565b60006130de603483613981565b91506130e982613f64565b603482019050919050565b6000613101603883613970565b915061310c82613fb3565b604082019050919050565b6000613124602a83613970565b915061312f82614002565b604082019050919050565b6000613147602983613970565b915061315282614051565b604082019050919050565b600061316a600283613981565b9150613175826140a0565b600282019050919050565b600061318d601583613970565b9150613198826140c9565b602082019050919050565b60006131b0602083613970565b91506131bb826140f2565b602082019050919050565b60006131d3601583613981565b91506131de8261411b565b601582019050919050565b60006131f6601d83613970565b915061320182614144565b602082019050919050565b6000613219603183613970565b91506132248261416d565b604082019050919050565b600061323c602c83613970565b9150613247826141bc565b604082019050919050565b600061325f602f83613970565b915061326a8261420b565b604082019050919050565b6000613282602783613981565b915061328d8261425a565b602782019050919050565b60006132a5602183613970565b91506132b0826142a9565b604082019050919050565b60006132c8601d83613981565b91506132d3826142f8565b601d82019050919050565b60006132eb603183613970565b91506132f682614321565b604082019050919050565b600061330e602683613981565b915061331982614370565b602682019050919050565b6000613331601783613981565b915061333c826143bf565b601782019050919050565b6000613354600e83613970565b915061335f826143e8565b602082019050919050565b6000613377601183613981565b915061338282614411565b601182019050919050565b600061339a602f83613970565b91506133a58261443a565b604082019050919050565b6133b981613b15565b82525050565b60006133cb8284612ee6565b915081905092915050565b60006133e28285612ee6565b91506133ee8284612ee6565b91508190509392505050565b6000613406828a612f17565b91506134128289612ee6565b915061341e8288612f17565b915061342a8287612ee6565b91506134368286612f17565b91506134428285612ee6565b915061344e8284612f17565b915081905098975050505050505050565b600061346a82612fb9565b9150613475826130d1565b91506134818288612ee6565b915061348c82613301565b91506134988287612ee6565b91506134a382613068565b91506134af8286612ee6565b91506134ba826131c6565b91506134c68285612ee6565b91506134d182613275565b91506134dd8284612ee6565b91506134e88261315d565b91508190509695505050505050565b6000613502826132bb565b915061350e8284612ee6565b915081905092915050565b600061352482613324565b91506135308285612ee6565b915061353b8261336a565b91506135478284612ee6565b91508190509392505050565b60006020820190506135686000830184612e47565b92915050565b60006080820190506135836000830187612e47565b6135906020830186612e47565b61359d60408301856133b0565b81810360608301526135af8184612e74565b905095945050505050565b60006020820190506135cf6000830184612e56565b92915050565b60006020820190506135ea6000830184612e65565b92915050565b6000602082019050818103600083015261360a8184612ead565b905092915050565b6000602082019050818103600083015261362b81612f96565b9050919050565b6000602082019050818103600083015261364b81612fdc565b9050919050565b6000602082019050818103600083015261366b81612fff565b9050919050565b6000602082019050818103600083015261368b81613022565b9050919050565b600060208201905081810360008301526136ab81613045565b9050919050565b600060208201905081810360008301526136cb8161308b565b9050919050565b600060208201905081810360008301526136eb816130ae565b9050919050565b6000602082019050818103600083015261370b816130f4565b9050919050565b6000602082019050818103600083015261372b81613117565b9050919050565b6000602082019050818103600083015261374b8161313a565b9050919050565b6000602082019050818103600083015261376b81613180565b9050919050565b6000602082019050818103600083015261378b816131a3565b9050919050565b600060208201905081810360008301526137ab816131e9565b9050919050565b600060208201905081810360008301526137cb8161320c565b9050919050565b600060208201905081810360008301526137eb8161322f565b9050919050565b6000602082019050818103600083015261380b81613252565b9050919050565b6000602082019050818103600083015261382b81613298565b9050919050565b6000602082019050818103600083015261384b816132de565b9050919050565b6000602082019050818103600083015261386b81613347565b9050919050565b6000602082019050818103600083015261388b8161338d565b9050919050565b60006020820190506138a760008301846133b0565b92915050565b60006138b76138c8565b90506138c38282613bbd565b919050565b6000604051905090565b600067ffffffffffffffff8211156138ed576138ec613cf5565b5b6138f682613d24565b9050602081019050919050565b600067ffffffffffffffff82111561391e5761391d613cf5565b5b61392782613d24565b9050602081019050919050565b60008190508160005260206000209050919050565b600081519050919050565b600081519050919050565b600082825260208201905092915050565b600082825260208201905092915050565b600081905092915050565b600061399782613b15565b91506139a283613b15565b9250827fffffffffffffffffffffffffffffffffffffffffffffffffffffffffffffffff038211156139d7576139d6613c68565b5b828201905092915050565b60006139ed82613b15565b91506139f883613b15565b925082613a0857613a07613c97565b5b828204905092915050565b6000613a1e82613b15565b9150613a2983613b15565b9250817fffffffffffffffffffffffffffffffffffffffffffffffffffffffffffffffff0483118215151615613a6257613a61613c68565b5b828202905092915050565b6000613a7882613b15565b9150613a8383613b15565b925082821015613a9657613a95613c68565b5b828203905092915050565b6000613aac82613af5565b9050919050565b60008115159050919050565b6000819050919050565b60007fffffffff0000000000000000000000000000000000000000000000000000000082169050919050565b600073ffffffffffffffffffffffffffffffffffffffff82169050919050565b6000819050919050565b82818337600083830152505050565b60005b83811015613b4c578082015181840152602081019050613b31565b83811115613b5b576000848401525b50505050565b6000613b6c82613b15565b91506000821415613b8057613b7f613c68565b5b600182039050919050565b60006002820490506001821680613ba357607f821691505b60208210811415613bb757613bb6613cc6565b5b50919050565b613bc682613d24565b810181811067ffffffffffffffff82111715613be557613be4613cf5565b5b80604052505050565b6000613bf982613b15565b91507fffffffffffffffffffffffffffffffffffffffffffffffffffffffffffffffff821415613c2c57613c2b613c68565b5b600182019050919050565b6000613c4282613b15565b9150613c4d83613b15565b925082613c5d57613c5c613c97565b5b828206905092915050565b7f4e487b7100000000000000000000000000000000000000000000000000000000600052601160045260246000fd5b7f4e487b7100000000000000000000000000000000000000000000000000000000600052601260045260246000fd5b7f4e487b7100000000000000000000000000000000000000000000000000000000600052602260045260246000fd5b7f4e487b7100000000000000000000000000000000000000000000000000000000600052604160045260246000fd5b6000601f19601f8301169050919050565b7f537472696e67733a20686578206c656e67746820696e73756666696369656e74600082015250565b7f7b226e616d65223a20225745423344455620426f6f7463616d70222c20000000600082015250565b7f4552433732313a207472616e7366657220746f206e6f6e20455243373231526560008201527f63656976657220696d706c656d656e7465720000000000000000000000000000602082015250565b7f4552433732313a207472616e736665722066726f6d20696e636f72726563742060008201527f6f776e6572000000000000000000000000000000000000000000000000000000602082015250565b7f4552433732313a20746f6b656e20616c7265616479206d696e74656400000000600082015250565b7f4552433732313a207472616e7366657220746f20746865207a65726f2061646460008201527f7265737300000000000000000000000000000000000000000000000000000000602082015250565b7f227d2c7b2274726169745f74797065223a20226e756d626572222c202276616c60008201527f7565223a20220000000000000000000000000000000000000000000000000000602082015250565b7f4552433732313a20617070726f766520746f2063616c6c657200000000000000600082015250565b7f4552433732313a206f70657261746f7220717565727920666f72206e6f6e657860008201527f697374656e7420746f6b656e0000000000000000000000000000000000000000602082015250565b7f2261747472696275746573223a205b207b202274726169745f74797065223a2060008201527f22636f75727365222c202276616c7565223a2022000000000000000000000000602082015250565b7f4552433732313a20617070726f76652063616c6c6572206973206e6f74206f7760008201527f6e6572206e6f7220617070726f76656420666f7220616c6c0000000000000000602082015250565b7f4552433732313a2062616c616e636520717565727920666f7220746865207a6560008201527f726f206164647265737300000000000000000000000000000000000000000000602082015250565b7f4552433732313a206f776e657220717565727920666f72206e6f6e657869737460008201527f656e7420746f6b656e0000000000000000000000000000000000000000000000602082015250565b7f227d000000000000000000000000000000000000000000000000000000000000600082015250565b7f4d6f64756c6520616c7265616479206578697374730000000000000000000000600082015250565b7f4552433732313a206d696e7420746f20746865207a65726f2061646472657373600082015250565b7f227d5d2c20226465736372697074696f6e223a20220000000000000000000000600082015250565b7f43616c6c6572206973206e6f7420616e2057696e646f772041646d696e000000600082015250565b7f45524337323155524953746f726167653a2055524920717565727920666f722060008201527f6e6f6e6578697374656e7420746f6b656e000000000000000000000000000000602082015250565b7f4552433732313a20617070726f76656420717565727920666f72206e6f6e657860008201527f697374656e7420746f6b656e0000000000000000000000000000000000000000602082015250565b7f4552433732314d657461646174613a2055524920717565727920666f72206e6f60008201527f6e6578697374656e7420746f6b656e0000000000000000000000000000000000602082015250565b7f222c2022696d616765223a2022646174613a696d6167652f7376672b786d6c3b60008201527f6261736536342c00000000000000000000000000000000000000000000000000602082015250565b7f4552433732313a20617070726f76616c20746f2063757272656e74206f776e6560008201527f7200000000000000000000000000000000000000000000000000000000000000602082015250565b7f646174613a6170706c69636174696f6e2f6a736f6e3b6261736536342c000000600082015250565b7f4552433732313a207472616e736665722063616c6c6572206973206e6f74206f60008201527f776e6572206e6f7220617070726f766564000000000000000000000000000000602082015250565b7f227d2c7b2274726169745f74797065223a2022636f686f7274222c202276616c60008201527f7565223a20220000000000000000000000000000000000000000000000000000602082015250565b7f416363657373436f6e74726f6c3a206163636f756e7420000000000000000000600082015250565b7f496e76616c6964204d6f64756c65000000000000000000000000000000000000600082015250565b7f206973206d697373696e6720726f6c6520000000000000000000000000000000600082015250565b7f416363657373436f6e74726f6c3a2063616e206f6e6c792072656e6f756e636560008201527f20726f6c657320666f722073656c660000000000000000000000000000000000602082015250565b61449281613aa1565b811461449d57600080fd5b50565b6144a981613ab3565b81146144b457600080fd5b50565b6144c081613abf565b81146144cb57600080fd5b50565b6144d781613ac9565b81146144e257600080fd5b50565b6144ee81613b15565b81146144f957600080fd5b5056fe4142434445464748494a4b4c4d4e4f505152535455565758595a6162636465666768696a6b6c6d6e6f707172737475767778797a303132333435363738392b2fa2646970667358221220cb955a9e103ff6c04b52118aa92ae0319d372f8be1750ae2a5ee2563f9923de464736f6c634300080400333c2f746578743e3c7265637420783d2733382e31332720793d2733322e30322720636c6173733d2773743135272077696474683d2735352e373727206865696768743d2734382e3436272f3e3c7265637420783d273131392e322720793d2733322e30322720636c6173733d2773743136272077696474683d2735352e373727206865696768743d2734382e3436272f3e3c7265637420783d273230312e31382720793d2733322e30322720636c6173733d27737435272077696474683d2735352e373727206865696768743d2734382e3436272f3e3c74657874207472616e73666f726d3d276d617472697828312e32373634203020302031203133382e34373137203130312e33323238292720636c6173733d2773743133207374322073743138273e2d3c2f746578743e3c74657874207472616e73666f726d3d276d617472697828312e31373831203020302031203232372e36373732203130352e34333039292720636c6173733d2773743133207374322073743139273e2b3c2f746578743e3c2f673e3c2f7376673e3c73766720786d6c6e733d27687474703a2f2f7777772e77332e6f72672f323030302f73766727207072657365727665417370656374526174696f3d27784d696e594d696e206d656574272076696577426f783d273020302033353020333530273e3c7374796c653e2e62617365207b2066696c6c3a2077686974653b20666f6e742d66616d696c793a2073657269663b666f6e742d73697a653a20323470783b7d3c2f7374796c653e3c726563742077696474683d273130302527206865696768743d2731303025272066696c6c3d27626c61636b27202f3e3c7465787420783d273530252720793d273530252720636c6173733d27626173652720646f6d696e616e742d626173656c696e653d276d6964646c652720746578742d616e63686f723d276d6964646c65273e3c3f786d6c2076657273696f6e3d27312e302720656e636f64696e673d277574662d38273f3e3c7376672076657273696f6e3d27312e312720786d6c6e733d27687474703a2f2f7777772e77332e6f72672f323030302f7376672720786d6c6e733a786c696e6b3d27687474703a2f2f7777772e77332e6f72672f313939392f786c696e6b2720783d273070782720793d27307078272076696577426f783d27302030203835302e3339203835302e333927207374796c653d27656e61626c652d6261636b67726f756e643a6e657720302030203835302e3339203835302e33393b2720786d6c3a73706163653d277072657365727665273e203c646566733e203c7374796c653e2040666f6e742d66616365207b20666f6e742d66616d696c793a20274d696e65637261667469612d526567756c6172273b207372633a2075726c28646174613a6170706c69636174696f6e2f666f6e742d776f6666323b636861727365743d7574662d383b6261736536342c643039474d6741424141414141435a674142414141414141705267414143582f414145414141414141414141414141414141414141414141414141414141414150305a475645306347695947594143445767674f4359526c4551674b6771525567665a4443344e534141453241695144687941454941574848776546535178634778654c525164796a774e49316732694344594f4176786d3534324b6369364b4f50762f6c747751555445376744563957776f735a6970502f43784d626e516874546272445967457075556759525875314941542f545047754b357836386b34593479474c6f454a5337494d726732626c2b633635772b6d59366e334354762b6d65386c762b3654354d5957584854724969514863336f47746f333853553565654b42337274366b6d536a307375594472456c687861797245747055774f7668524d572f6a4b467a7251516d4d6837706a6d63544334724b6a797152463477696548364d656538626f6f6c736b5572335a6849616f5973336d44617a764c53384e453861523574593648717831765a464c6173303166627a315130496863677733554f6b53524a4e46784666784572434c2f66374e787641472f784173444d6e4b6b4b5a61766c5568666c513457716d5773377667694234426b5478394f504b54654678315566644f36524141627868672f6f58392b4d7a625a4e69437651656636433747777144647059634b5473332f312f6274386d36773765626e2f584a72496d2b344e714a395a78554e584c4253793071733671446846314a372f2b4e66765651315454766a414c376c49733772394148624d427739306a473050644e2f61517a5835626231545255756d4136594a3847774341697a5768327256334a396d2b39792f634f48557044415479504f36565556696f676f516b6a49536741734c79773350387953317256663754543352634464794a4d3275435141444a41426b6a364e622b2b646e37507a4f3630546e4f336f777368494d6570726d6d706b7a624d796b46377438344a3254424351794d7a6b67437a49626c6a6667624d69323569715741614a50584174582b727151624a575633547a585270523545566c6d45596e553451434b47507a38316c7545794d69622f4a3655614641695545416b6e6c2f33342f2f6636596264372b743757386c34686f70386b6744444f592f4f6344424f434430394536414b394e584c6b412b4f54682f703041566143766f5453433843314242786f515149424950534c704a4c33516755616e417831422b41416441467947523664672f7a3441774c4c317a52745a6f5071336e41366947413378482b436f41696743524541454443594176435643674d463039344778464a326a32694559644c4e4a72575263616838707471724351535352526950614d59546a6550696362766a336a77424579713759636e7330474164526833687545506737712f7476587a6f316c72762f686c6434696b6434776a317563494a74354a4638765433383062344739774f6932627367556d4d53784c77717458555559315757565958324c30716e5458314459314e7a5332746f6f3762326a7336753770376576763642776148686b64477838596e4a71656d5a32626e356863576c355a58567466574e7a6133746e643239665847484468383565757a34695a50424d63634b6b75576e56566d336d6e61333378734d7836504a644c356372446272772f353469677a6c746f4c73787976467550665645734e7874364538307473417442787733524f5748674b30486e355335566139323476726d346648323774446550776c66506e703766734877764d6e4f4f6f79723469616271694f433531314e346d6770313950494f6743494767454855757164434b436651795638317a5a4543376463417a4d5a4231314b4b4f752b373366642f677949565732315555554672386d33444369744d74624d6d75636a716a73785472776c7733522f4d5646524874594857333048666b624155374f6f507a765a2f53744b736c354e2b64754f482f38376e55527952627650685252323663763672695345412f2b4f68496a4f494c47506e33627a55307374726169484950744f4f777337682f6855332b4d4145395544597347784d596c42687555502b74507771776369476e74596e374c32654b6a785a35595a316d736a50726c534c443464436f6c78732f5254684d65455744657a4a3238424d475a5534655469346d6f41565468512b437278714e39505a5978497a6478516a61353249306235757730344e7545556e6630473237534d587754733176537a4332437345764c366e3036737a55524f664c6247386a79646b78544f5048454768644e7371394c7630707a306f5a7a5836493235524b67324e51766a2b4c476d7648764a514d314a316a51644c42622b4e37386638367153326536546b4f6a3668714a7666572b353744505951494f54553270374a75796f416139305a374e6634717038357559557943596d526941474854674c3361395a77464536616c6e4369706654357a6d67624e786e4b357036656b79685057586a5967492f4b63622f494c345142356834427444593442685675376e3061623770396435304179792f694f755931463253755449575346574167526742624f515a517457396c56785a2b5669652b66713969686234356e6759654f2f7a5a347a4d5a4b7a732f695351374b384d544668702f6b776c376e7a624741626a4a675a4e34666170452b3450585872634a59534b4c6535636b41524b6c34736e746b2f36362b7746566c7679695655507a6c79516a595a6a35354b6d5752616e4d66684f324979562b595a58545341396f4c6d4369742f7839522b5a3369634d42633342542b31716f65683154306d5a6754712b364f6a3374444364366a3267576d6632744d4b50585879467939354366764b2f6c6c52584239625831567366685449726e683936724e6f3955702f676d5a4f42372b6369376f6a4f4c693166726236415058634c716539374f332b614a334d746155505a35557a795338425438554a385a582f64486e71497a334976394b38626a766a5a5357642f4a754365555452713258417172373438366c7a374b31647a516e2b5a324c474b516e4c4a33615657396e6e79326965444f775a4d3074494c414874706e504a396a59346268637658512b443347697a6679726e52776241675a384d426a7075474567476a684a694a615177774455656d483578653866484a306d4930376c48584241346b36637530316c4445596168714239336457517954615278544e775243646151723146434f686278306b79633459524b757254446d6148737573425239673638623136444d62306d652f4f313662367432424462474537514f61416957426b51696e6b4b51396b3771724e504c7a395a596d353957684e6e44507a6e52737a7a32555947566946414c73535166536454766178334544665654304a47786b6e2b7671516d546f755973494f6a68416d436b2f2f75654a4149795546566956525732744b53395850493436437943697a5545345a566b574d4a526a496d664f74732b462b375241327a6d7a466b484771724a5838366339504b4d6c624f644d632b497076435968655968676c70557162426a6b56747655365a7835594e337a6e4d713955766f2b42305258716b31536456674954686c47697a5437545445353843647757436e38723431325158674c57326b6731757a616a446b6f7654792f396c666b344c633467475963546a6b736238464531534e5635774b354e30774c65534f354b324c5333346b346b76545543616e546c7a624c5275434b597131396f7a626e56717a3651342f336346477336684a6657426a4b31627a72474a58446a383038524b57674a56594c6f47313456596c306647475a6e465059654452636d706145753370626a6b6e50323270744b556e41482b4b4e314a325a6c617a4e736c61687245314b5a4857626d4a456549594c52794a4361594b6b524a57346d2b4d547333447646437835486175772b31534d6d4b4c706b54794b5048676a6c76436344346e57516f4571355765564d336c4c7864495259764445334664554d74624d62563036445a767555464a454d543657387a79574962304165574273477a54344c473565314c6573316768645572736d46686b62425a34654b516a7a3256484372427469634e725858344f6c516262697a4653537932634b4a7a6477334f58496975464f70524f303931586837344d2b6f6359684b57496d31425947324549546f49394a764667435256486c6c4579537957567542387156354369494e486278547a685261575658576336516864556a70386f56455857484c4d653961497852344c5a797052523844376d6b634a6251624539704655713075572f79634446764c56444b544e4a736b6647626347377247424b6c4f596a36626f4d77374d4b4e647777395a6e4a6e5255525838735767627a503545596e43523569396e4933353866754d6d35554d325476655641556d73306361676131684a7a3849347146552b714a4339376c4a3354536e54437546664c5744504b4e30444d6746366b574257384d36354a7a594339627156487a6f36306c426a52516778704532554976562b79345a426544586f716752525133534772485751477a3839463141676a6a6c464b4565724a73574176547977506e4e70567a6f494e6e752b2f5951744e446f654b4c4558452b456a72707a6e625265453330316f4b79566d444c486a3535717a306e535865486d6d77764e6e62385437374e4e754a334d4b2b4673466445305430316454644a4138463078304b4c6b38645651437a594b4273535a796a716f65686c7437394b616956724a376a327334354b51775a3063657a576654734579476e50536d5774302b587a54734956445a566a6d514f73524a715365333453394559333075674447486949354f45494371694b62557a50793158543162636c6538774b4e5667514a324359565a327657695366367178772f4b3043795675474f524e45744b77564f4449585841565a2f6136626b37334155357035624e4a3055564f774445576455314233615974366f6e4a6f56715057524956754c7064715755706c6261585766774773436f734156794c695734744d3957712b5a46764c79754f556164517351303079314153584356784464782f4669366761684f626d6d5a55724e63586667477932764b68652f7a5242682f62742b366d727a4b6c737730312f584d586246445669754651434e73547a71384d637945336a3874632f526e33697067304a36503676416d6b53782b497a6d3852452b2f3859446d4a7361782f2f6f734e49674665682b63323842734235492b6762544a4663493663796c4e706c58756c50564c7343662b4e7935423331644c4350314f43666272546f50336767453348516a77514d6452726633735541726f71313844386d77555839727868673263364b654430526639437834786d6e7034314c483755547633624e374e747473653934355774354562497350475a52723052663569674f443348355676754f7a6c732b51742b56547661504259656f6e585242676c7231617432364c655274764c30796f396d4a353759326345434d4b3065706c424f375556326152794338664368703549596d314c4e6c306c58566550394f75306d5a7774693150534e6547324a6672704c7751386c375a764850494f366278766d376254504338756c554f73626b397048705a4767326b38576e3471376d68685833656c525a327647682f576a555272745770654144657831534d4f7651644861344f30726479755273574f647546486943634f4e523857414832647532413032393468392b5a526358635938384d6f3378517a6a717536316a65665939627043784e354c326a674a504c6b743559752b6a46334f5664346f5034597839394f455149654c314a774355345058326b376a6b4a614278316d5363306837767a345252315763444d4a37784f786355434d6a792f55515a45784b6e766f2f6558726b31685741326f3979367139766232504c6a59652b75786c77314a73324753464b596250576c632f4d3959306d357363734f5448686444516447782f45476375776c4c464161366b7363346666374c5157676273786b6d4c47684f38766f3147337a76704247662b6345527775317a61332b64476b424539722b434839556c78313071354e3430786e686f61746f6c3474684c4f4a397a52734b4169502b48383344417059686972302f4878797779764863736e48557756534d5a52625254465776747555513656622b6535544232424b697031624f61696437726a49685848703937587676342b684246316f6e46613757654e6a644557397a46675047504b6a6c527644684e4e73427a496d3630616f636e723939354370752f6d6832756e683446616c4276724e74572b6950723258647677717275585230444d6242444b2b655854557843756244554b7361526c4e3538324b577737315a5043315744576b4e386742395937636e4474626a48566a4e69355a666c3965676933643844344f50645171356a542f6d55682b79397854464e6f39674f68326878527664766632386c746a544f777a67654b336c72766c737065706b5a763151464a366f737a57392b52524b6b6b6255575331494f4b6e764a7741304d6a54333033326f772f3464702b305a74626172574e2b41384666613742746e31377963493347592b43464c4e4f74747635724a635468325663654f37736363382b4767372f55503452536f6d63644b306553673176466b35697a62373154436564754f6a566633476e7172313873433666574a743632686166664e71754f547756775841786132742b64626b6f323849352f72456d2b36426e32574a3439754a68757647454f2b525a556a634a4a5938343065357642395a334c457277453467655476626878336d4c4f61366c513535303964776f6f6f792f30735668416754687655773246434d77357a7a4c347a4f66626e415468312f794d48447a6f63424759615a33416932754145526f73524a5930724e36635937584f4b6a42494f31394a3650504264422f55794f3559794d7172644474763371574234776d6f34446b5461635655463859356e4e495a796835496f6b7144775332784b7643685a70656b4d42753476367273334c684a62552f4a6f36636c4f725474616433487769627234587371775a6941366435653574456c57334d6163773954495048343131776d37574b65726b496d367757325a4f356d74724f4f6d2b6a65363476345a2b77715937353459642b3352624d33616e327272394d454e736d6b654b6d6f72426b572f677947503174654c476f39796b6a7544776d397a58415963553831726c4965316463795a71776269476342525a33682b7531393368666a2b4561504e76314b627631644253642f566f42706f4d7362612f2b4349337856674258314233466b476468417139595747526e3370364b314a314f66672b76357041494e5449623867664a4550734e71676d6b68766433516f484d317a4e6a2f636a3461686c587257387971517a5a63475573486c543271594d4c736e357467704c63706472655639547a6c4f5868742f4f65446c44515237633648304631564f746479714d67393346325966532f43355739416a774b673270396a596651664743425964464b786661344c4f33635859485143442b6949304e623352434e4c30514d67325879546c3530567443706f4843364245324a6f3831646743373634423746446445654c49764a697139525a6b59386a7067455975636d4c654a6a45683467737a5a437a596f634f6f737246786a592f75706853697a6c3939736e57464f32345252337862584b39584e2b334e3130456d41634954554466503647476351396b634d59347462394d7270666348684e4c51634f47454f7a54314f64336e554c4d426f364c4864576d6c364176744748696c2b72514b4e726948432b5933502b416d656a4c674456386e507541585834566779694b2f4a6252484f34324e766f58673844327647333043624d4743647759506a5038474b5a68306a3741366f47593671304135723452712b784173626c47354d39624f4977515461394250505442756d684b30477039516538455275563969776548517a6154497a7269456f614e432f354559614762714e5a683871525a5667444d422f457765684f5565363847654d622f6c68784251334d2f6879334d534e616758454845526872457a462b4c446a396a447a4f682b336658654d2f597464472b554478634169464a4249745856774a3139536446393331783059494841506136337569675569452f575158715137626b677568536a747036556945466b624d69325043755556504642734d444f744150444a7464355466583752687532664c2b35657577393767756c787365627a734e395275783732354e4976526a635031784836666c523074485776656952585163675a795a454949336556455a694d424c6b317643784568395555567171524b7a454f62774634527874787734617a5973726f68314e34664a4559724d543441696949314135466d537854354167356f6e784563663645674e4573673137374a7a337650364f71507263746e65394e6a6672524f64387a7a592b75534e496d54506353464450664b73473064726c4b71392f44714f50767254356a2b66586b56442f6277782b78535775432b714850794d41726f6d6c794458324241694f63594b364e716d4968727978594156453132424a677a334e50634d516b71304d764b704f37685763665a767051615661375767497930515146434f7275734762733937515573666d757a527663616248394b4e6b79453632367279376d6d5a485539442f516c4f48506d637556476642306f4b74316f684947414b63643656445475465445694b71714d62737154705a386c49414e4a5431574a544a5452734a6468376945745753684d43464b5768716e70727361773146636c41415354303732456c4f65657759787a59394575667864793045504974716f687a3342686f796a68365459524e73734c36593068732b6c65673848756f4c3049753159334b467144714b374670545a66667841475374306d6e58312b3944586f575336383252794f344471496a615348647971393674316c4d396c4870567466464f4b4a6b755147652b4a626e46697275537963426d50446b524147734d7737637051776c574c2b506e304e2f5373686358644c4b4c4d534f41424231796e6e78636b73565446555352496f75654b2b724d52554a4f667132647a464a42556d6f53346e464a78387a4c6d496b6e7533346355396f774b6a45454f5a7a4d306c6c6d554c687249426c62537945395a51615a634177735a752b4b4d4236633152414862586e36315841635a6435307a574a396f6e53706559702b3968574e306a46673368784a77452b795961344639365078595a7537524d65583839416b7767536f5571384e4138314451734b6a65565943796c565556476353667a623467426a5a715165745669667a4b694e4365434a354a5370313466744f35554535315243694368686a796a6c68674d787151344d4332695365703151516f543250514f437048556f75442f567959764e71535841696872314c633442362f454273616e7947324365514f79315346747a2b6a4854556f35586b704146374455373559636c52796c55737347644154384f7777786b50526559427070755a514731552b522f595a62504e314430323050345236734c3161444e6b3358796769706a424d62687455786b4e696f7339304755614d45787148344f654652686c505936352b2b676c463965386b5744446d7261654e35596e53677348337951502f776c6a576464676453577a682b4f4730754f6a57314f57695133474b64633959424f527763316b69557a4863446d4254705563727347687878686c3948612b73424d3641636c353177494e7a524d33345973434a6c747a736f30525a726a4856794d445a6f5763616b6b307434776a384a43716555426e3070696c577a6f63396d46687569416c4e394a4443554575363634556a624c3836754947533277334c32656d2b6969414e513631654d6d464a4d74495a31316a5166484b4363414b48665a426648586454486b475457795473427751654a646b536b4539734a6c6e54714744704377387469527975645633556672695253454d6a73583447533278346a5353584e43352f75364e532b6e72534d52633859496e65487956462f694f2b527646525349767963655034506a43554943454d754967504d31326c3572494d61585050452f707174756b566e3969573856694653555a77566e6c446164684f57725a444938327177344f596e4674652b5974766b4e63344c6a643641494142414b307872367031714b3551727271326e4d794b444a637a757944445a532b5045512f467031794b6c744541504f51646a494574673953633559356f4e3330616938365430527462734b43666167704638703973564d6a636250784d3832452b684579626b5a704463575637376147586e53584d5a4959453152714c306e752f384376786e42467853577450486b46634e363662674c66504551436768564f492f336765774855706a71686a6b583575555a4261444a336d726e2f4259422b455561512b6e5030485645584f7868474237572b65736b46433553597a65694c6d61525450454539706f75724b41424268454277513266774546663943546d7030544f6a316753747179414c4b5232343932344b487875647737686346366477575368576d2b72306968524a4d627463472b787858397746414d47707269384861454c61356d66767565556d753065306c7462596d527778714643674448555a66763252592f496e396875314d51705138494d6c4d3467794f59593052486b3156534942555a6a4c5551564b43594a5435756f4278753134595949364348534d59683774317070666c5633624f6744743533516c6d71614871536844775941412b3936527a6a4c723953735734436a366d6733684d6156465a30496361477344783448624b72446a54457271386445543579556f55533255426e47695052337859464b557345514a5a35537730656b53777573534973456f6945553158553743795753644c4b37772b4566434a4b336b474335634f4a59306c77496c34466371706a6842616a4e634362615962363769476330476a33726f7376324a634955424b5a70632f692b6b457a5a773136484167374674594468454d6c664f35705130702f39544776486535736f6968696170314751307849376c316951522b32437674443436765570315a4c4461446f715773756c73742b7a4735434637712b366a556e554247456b6447504c35314166694a714d48716b39482b345450475166654f62495357434f33346f447756346d496d344a316742636158434f52644372776a637559597043327152656a66567a332b2b79715a35366a5a6a77422f4f72484b386738445437384e3036416e33374c454b424957453771484842704b50726e353574527943776956576d5565637758336b4a434a4774356277487a45614e456a6770334758626849302b7961656d4e624362696441786e7177432b4f5a4943455568455749617331304e562b56344f6b62746774743465514e3150434447573434334267436563754679754937736b5a797134725163354a5869454a387465574652316e5544545679426d4375585647436b42323270497568373272596763417869446430713461447747556f484a4e2b4a6177486e4f425462443658595762344d367775515935764830364578497049714b495239374c61653646684a694d4a484f4f75786d6a51536b73566e31614c765078475439383351372f44797842376b6b6a4a334830496547685143715067614b6243756b7078716d3241615145504f692b6b50774264794f336f2f4b4b6c75476e754f774653634c4157724d6d734842533771557a6652446f7038795146634e4741436459526f35525a5569464f55786257766f425572584e434738685846734c36546e35615943426f566f30586f6b746d6d4a3533354f4e62452f3170613254464b5a7949424b69376e75726f7a6743717431457a557a4454426c78702b714a374e6d7967437973624e31426b32636b356b306272324c316f484d5341646e30746a44373277422b576461744b593175544a4f5273334d47316669496d417747785661655a3479435258326b55316b6d4b564434334965534b78736a74327a6d4279305a7a4e455438506f79414f4452676f786268685a6b4d6f69574862627a78522b416849786c66706d435166446f61475a3352694c694669523145482b55544665595531757448347065374d5179534b755639654e3836646a38424a7a7476306350636556434e616d56653534776f65396354456b2f56393142356571415a71387177532b5066475a2f544a7167413366794b45537763595250644b6f325537704d3666645173392b4e7541427639372b5775454c585042386d64394b6236355876472b71634a66525936734777576e362b51552f557961442b374e2b743732653848594a337a73526c6732544b46396d7763567954634e446c306a6d3761505a42504e4d3965774633594145727947547278376b6d42726b557965384a2b4c4735656f463135737158322f3751385647686b2f4c6f666356667433366e543167496b6c576d5670516f566e5078454953584743335575494a4833436634374f414f2f73714b4d46766e2f71322b545956384c72613739324767586e6d506f30576845366c4b4e725730414a4379424e5367556b772b727064522b5635437a5071576f4473765a2b6d44596e4f686972436d6d647464374c327970716864747962654532354b542f31376843736f6d4d6a726a616d61487761536f386b72614b6c6d717845384f42566237434f73545732707373304b4d45634b564959717a655a744458414177417778594b674f414c416b2b4a7076624d714d33706b6b7277386c723563785a365364767a396d7348655a545a684f4168414b54304f5a5a70567a3256664f77754d70644c4e75327745654141494e3375736d4f753558707651646d444f6b74396158773249326d396f71484f5a413177714c414a3645325a6f69354e7a79476b655358626e43784469504b316d416c4658563130562b33765850506274785933725a51494d7a384a55436e4c4b4e7566517950486f4c5765794138734543383768356b6a384a6f6c7877685359544b596555756e373067386c5272443161462b33356356514b53555a5579624b347745336351524a6c37303668464e426e5645457855726d426b63525968474b744336723259753069703361553379317576354977354d7159716e3247443068734c3353574c744f6a543255773142674c52356d55496e45316d5672512f736234484d69364674426f325a6c6959442f55767349676f77576950587776656f4c4c68314a63635961675443555544434756714539362f4e656d6b7336776136546b395278482f46775944615a73774863316f2f5745524b47496167335852674d7064524a7a7067454d677545766a53554f4c697444614b643344536c4f454652477633705a69684842723565545963324148623361617133317a794c776f4f6f6574665066714e3734726754396a5a516b7253337545654f556f4e312f50636e586337723354456563446438626c3153524477503936676471556e576f5343534542647074486f394c6f6b5836437a4e414d74625161636e4a313356504d35783839697348634468415567776f756d4649766d5867394f36464a56504a2b6449306c547054553863694a4b525a717032544b464250636d776a4f422b4b504c656d4b4136423857313932746841454a2b73446e5972614d612f6e4876703233323774616c5a376966364878684834614459556964763130734f325138776e6a7934324b396b2f636a58677243777647726f6d6b6f4d666a614c6f7a71677672554179627976517450563355534b5a6a50544d6e466669792b4e35344e5368686e58665267594b664179545238674b66717a62385a43752f71666863767a6a415364472b5a492f6234556d4c796d6b6d626b384d524b474f3638534365556c4830416b5a35474b39764e6a7a7563566b6f517553366b355665484444524c4470415635642b685a4e6d77546757706535516c69326c36366f586c643478656a624f332b746978765253726a2b655269575469396c576a66646565612b6b2f634c6a3970307850774e476659465058594c627248787666416b4869736838712b51584b796c59514f6f6e5878497149514e47314c497745566a705168453054463041397348754661345a6c3979456949463175624764646b415a4d4231474b543452513259756d5a4c504a48416139496f4a4373387a5232414d56516264676c424433724c6e475a56764842704464365671706a332b626b46716767453743662b494a584947706e735a4f6a344d516c48507a7834353348612b3672635536782b464f324a48504d6f6e507742323766644f324747424231782f32694f3646317471755141376c7855566566454a385433764266614a384669336450704b2f71416c3232616e4d4755367a785a4b49734a584a32776a3031754f75474a74384a4430364a4b58475a6d3644454b5a52516e4c6e4b55705254596250614e4a5539326a414f675a434674445658796c6c6a774c386741554359462b4868375737654568396b4137615a7147614354362b484e372f7a4d6e2b3850353471686553735072756b676b766d2f656d37766366576137365a624463392f6f356272303561316e79423249424c7235344b724d7934434d523233346943626468756a44556535427475556a38696956567064426639444859596a6f626948487478736a564f4c59543132516f667a2f3065502b726d4a524234324c2b624e34626f4f515761667a614355357665694a573736596a384c4f2f697a59542b6d7759345a4770463134426563777a51576559337a6d4154376272436e574b727761462b767936486662544a36416870795a73516c2b74746348536b4159386d533877574a76492b562f56424b37532b4c6e6d6235683647586c6576676953323742614d6a4a516d4337722b477348705058555866654f656b683751474a706a53746962496b56783842465448692f56783968614d696f2b784f617966747079477444514157582f4153363142576e6862686c706479366d2f44733677634476694a70566c6a45392b6a6c53545653364d437146736748367a365742467037676c637542354a71544257376a48615172567830376c786b717a493570714d65794848502f594a55644a784c36507961527337453142656c73363431504542384f705a47785078734e7a6c725432696c316e4833654758487667386e6866356c626b32314574665163593472614e5470695535696b366652524a633573425846384a2f52374c6f5861554f744f333878664a4535493855763573706d4477686f52712f57675371727358434832554559623364776d452b436d63366c33764c32536b346d68765175526e61595277315430654e4239684c70336b2f7a754a4a5979383178304e452b6f534c794b61365a6e50735174734535796c6a6938416c4f314a2f4f75636370794e567776564d4739784530694d5334786946524b6b5036365866612b784e572b2b506c794e692b5074502f63797874452f6a57484370496f56456b695175485a58345034692f4b31507a514b44552b314b657973332b6f30364d2f6438674c3253377548674c49736562634f38467032694b6e6f49424d715a67507861756a58573067655432586862796539326c517a51677744564b306c61355059436b4c6873634558576162614e6e62525159556e626a5651484c536954317443767552494738497172325441505076436e766766356a74733568456c49592f5859544e2f666c75544751396461774e582b6843565175774346474962433745514e70742f476870414e70706e767a3559426f627732494c333761682f724a7666656e774334546f4e57566c595730625a744d446e76437542316779696c6d344373666d476274304841646f624378536d69572b63426361454b676c796c6c34357335514b46475331366e613461377651505879505763484c567a2f482f484c7141394366673942582f2b7a542f38322b573547595466487542762b412b4f4b4d43694152434936763734426a4c6e54747a2f75652f53727955417a64545a4a734f67317066634665302b57615035454e3465316a5247502b436d545139314f704831737170314c3157455a6c5879627a546c304c467545797a556866787446706536546f766a4f5245777971723963727047563465584e325869527457564a35754c77483551307933335248516242563059687575344f707270614a7658482b556a4a3633615a764d5878564e6f6238437a566b75626a74696331484668507a32634f6f6b6c4f6f6d352f736b5134447354325141306771597642463445414c3338514d772b61417949454b554c5444504765454a662b7a784e564e474c474f7049547a6653355a375531374f6559615350506376346f4869322f6d4750584a2b626a4b7079642b5a566930666d396249784874357a2b716177393778594b6e7376694b62545231356b7047764c7a724d596d445a2b7936762b6c7866542f7855762f7356622f6e6b347a6e5a6b776c786566627a65556c42666271742f4a79767135646b6b69375872454d724a5373736f55425a716b3551544b464d32433755493543674e5975704e73565a576d3042436a692b6c494d753355534374714955764e387a2b4c326d69324d4278786d374666475879737471312b54557967586e383259494f7330777969632b6e55706a5a695346756f734432485033507a383075766b502f747179535654486f6164584b3065546c703041636b647361465258376e6b30797a477777664c424656725041736843324d596176705851713869553079305364715336426a6f3859596e366d53627557574c3957713542533571743476315967615a74416f785169445a743630526c3461704b796c69384d4a4b6f336a706c6c696d6c6d7154633152626f614e5042754336524d455958354437526246733575497469546c654d79326b4c7a2b4b777643507a762b523145696978434a786c4d4670764456615661314145385066545553323939394e565066774d4d4e4d6867517777316a464b6a56703368526868706c4e48474747756338536159614a4b596567306d6d324b716161616259615a5a5a70746a726e6e6d5732436852525a6259716c6c6c6c74687056565757324f746464614c3232436a5454626259717474747474687031313232324f766666627a41334f6c6f787a74596566347a6a464f63614b4c58652b716f446e42423435305a74436a77386e4f645a776e66524c654a57377774362b2f30733265393678624e456f3454644b4c417339357761746538724a5866432f6c5461393533613353666d4e34783176656c76476a6e7832765356617a56693361584b5a6470773435655555464a57552f714f67534f744442446e4b6679783371454963353345392b38594462334f354237336b2f516e5248542f5247582f544851417769516f77454b544c6b6334633733654e6554376e4c335a3532724274444d5939344e4a536f357152516f304737725837596b616d76693245326474635261362b454f3253374c644a6c334f36477761676857597a7264463275322f57345874666e2b74324147387945727a676472553732723745796d76547a6d62764c726b53334e3548317978667a77722f4e744b6b755777545366754e37422f776644563444766a7a4a3235436e536c3274504a334c4d59746d63637573326f4a7638523949554964484a4c684e594a615a3451777a4d50744d356158786a543631527745774b352b5a4f2f68557a643251773435564951413d2920666f726d61742827776f6666322729207d203c2f7374796c653e203c2f646566733e203c7374796c6520747970653d27746578742f637373273e202e7374307b7374726f6b653a234646464646463b7374726f6b652d6d697465726c696d69743a31303b7d202e7374317b66696c6c3a234130453534363b7d202e7374327b666f6e742d66616d696c793a274d696e65637261667469612d526567756c6172273b7d202e7374337b666f6e742d73697a653a323070783b7d202e7374347b66696c6c3a234646464646463b7d202e7374357b66696c6c3a233245434532393b7d202e7374367b66696c6c3a233737354345313b7d202e7374377b66696c6c3a234544423031353b7d202e7374387b6c65747465722d73706163696e673a32323b7d202e7374397b66696c6c3a234646464646463b7374726f6b653a234646464646463b7374726f6b652d6d697465726c696d69743a31303b7d202e737431307b66696c6c3a233443393845323b7d202e737431317b66696c6c3a6e6f6e653b7d202e737431327b666f6e742d73697a653a353570783b7d202e737431337b646973706c61793a6e6f6e653b7d202e737431347b666f6e742d73697a653a363070783b7d202e737431357b66696c6c3a234345333032383b7d202e737431367b66696c6c3a234541423532463b7d202e737431377b646973706c61793a6e6f6e653b66696c6c3a233732303930393b7d202e737431387b666f6e742d73697a653a33392e3233313870783b7d202e737431397b666f6e742d73697a653a34332e3137303770783b7d203c2f7374796c653e203c672069643d276c696e6861636f6469676f273e203c7061746820636c6173733d277374302720643d274d3834392e35352c3835302e333948302e3834632d302e34362c302d302e38342d302e33382d302e38342d302e383456302e383443302c302e33382c302e33382c302c302e38342c30683834382e37312063302e34362c302c302e38342c302e33382c302e38342c302e3834763834382e3731433835302e33392c3835302e30322c3835302e30322c3835302e33392c3834392e35352c3835302e33397a272f3e3c74657874207472616e73666f726d3d276d617472697828312030203020312034392e30333637203332352e3832383629273e3c747370616e20783d27302720793d27302720636c6173733d277374312073743220737433273e707261676d612020736f6c69646974793c2f747370616e3e3c747370616e20783d273139392e352720793d27302720636c6173733d277374342073743220737433273e2020302e382e31203b3c2f747370616e3e3c747370616e20783d27302720793d2739302720636c6173733d277374312073743220737433273e636f6e74726163743c2f747370616e3e3c747370616e20783d273132302720793d2739302720636c6173733d277374342073743220737433273e7765623364657620207b3c2f747370616e3e3c747370616e20783d2733322e39322720793d273133352720636c6173733d277374342073743220737433273e66756e6374696f6e20203c2f747370616e3e3c747370616e20783d273134352e34322720793d273133352720636c6173733d27737431302073743220737433273e626f6f7463616d703c2f747370616e3e3c747370616e20783d273236352e34322720793d273133352720636c6173733d277374342073743220737433273e2829203c2f747370616e3e3c747370616e20783d273330302e34322720793d273133352720636c6173733d277374312073743220737433273e7075626c696320766965772072657475726e733c2f747370616e3e3c747370616e20783d273534372720793d273133352720636c6173733d277374342073743220737433273e283c2f747370616e3e3c747370616e20783d273537302e34322720793d273133352720636c6173733d27737431302073743220737433273e737472696e67206d656d6f7279293c2f747370616e3e3c747370616e20783d273735352e34322720793d273133352720636c6173733d277374342073743220737433273e7b3c2f747370616e3e3c747370616e20783d273131312e36372720793d273138302720636c6173733d277374342073743220737433273e72657475726e203c2f747370616e3e3c747370616e20783d273231362e36372720793d273138302720636c6173733d277374362073743220737433273e3b3c2f747370616e3e3c747370616e20783d2733322e39322720793d273232352720636c6173733d277374342073743220737433273e7d3c2f747370616e3e3c747370616e20783d27302720793d273237302720636c6173733d277374342073743220737433273e7d3c2f747370616e3e3c2f746578743e3c2f673e3c673e3c74657874207472616e73666f726d3d276d61747269782831203020302031203635302e323133203738312e32313536292720636c6173733d27737434207374322073743132273e233c2f746578743e3c2f673e3c673e3c7265637420783d2734382e31332720793d273139322e38352720636c6173733d2773743131272077696474683d273439372e363627206865696768743d2739362e3939272f3e203c74657874207472616e73666f726d3d276d617472697828312030203020312034382e31323731203238322e38343935292720636c6173733d27737434207374322073743134273e",
  "linkReferences": {},
  "deployedLinkReferences": {}
}