{
  "_format": "hh-sol-artifact-1",
  "contractName": "NFT",
  "sourceName": "contracts/nft.sol",
  "abi": [
    {
      "inputs": [
        {
          "internalType": "string",
          "name": "_name",
          "type": "string"
        },
        {
          "internalType": "string",
          "name": "_symbol",
          "type": "string"
        },
        {
          "internalType": "string",
          "name": "_initBaseURI",
          "type": "string"
        }
      ],
      "stateMutability": "nonpayable",
      "type": "constructor"
    },
    {
      "anonymous": false,
      "inputs": [
        {
          "indexed": true,
          "internalType": "address",
          "name": "owner",
          "type": "address"
        },
        {
          "indexed": true,
          "internalType": "address",
          "name": "approved",
          "type": "address"
        },
        {
          "indexed": true,
          "internalType": "uint256",
          "name": "tokenId",
          "type": "uint256"
        }
      ],
      "name": "Approval",
      "type": "event"
    },
    {
      "anonymous": false,
      "inputs": [
        {
          "indexed": true,
          "internalType": "address",
          "name": "owner",
          "type": "address"
        },
        {
          "indexed": true,
          "internalType": "address",
          "name": "operator",
          "type": "address"
        },
        {
          "indexed": false,
          "internalType": "bool",
          "name": "approved",
          "type": "bool"
        }
      ],
      "name": "ApprovalForAll",
      "type": "event"
    },
    {
      "anonymous": false,
      "inputs": [
        {
          "indexed": true,
          "internalType": "address",
          "name": "previousOwner",
          "type": "address"
        },
        {
          "indexed": true,
          "internalType": "address",
          "name": "newOwner",
          "type": "address"
        }
      ],
      "name": "OwnershipTransferred",
      "type": "event"
    },
    {
      "anonymous": false,
      "inputs": [
        {
          "indexed": true,
          "internalType": "address",
          "name": "from",
          "type": "address"
        },
        {
          "indexed": true,
          "internalType": "address",
          "name": "to",
          "type": "address"
        },
        {
          "indexed": true,
          "internalType": "uint256",
          "name": "tokenId",
          "type": "uint256"
        }
      ],
      "name": "Transfer",
      "type": "event"
    },
    {
      "inputs": [
        {
          "internalType": "address",
          "name": "to",
          "type": "address"
        },
        {
          "internalType": "uint256",
          "name": "tokenId",
          "type": "uint256"
        }
      ],
      "name": "approve",
      "outputs": [],
      "stateMutability": "nonpayable",
      "type": "function"
    },
    {
      "inputs": [
        {
          "internalType": "address",
          "name": "owner",
          "type": "address"
        }
      ],
      "name": "balanceOf",
      "outputs": [
        {
          "internalType": "uint256",
          "name": "",
          "type": "uint256"
        }
      ],
      "stateMutability": "view",
      "type": "function"
    },
    {
      "inputs": [],
      "name": "baseExtension",
      "outputs": [
        {
          "internalType": "string",
          "name": "",
          "type": "string"
        }
      ],
      "stateMutability": "view",
      "type": "function"
    },
    {
      "inputs": [],
      "name": "baseURI",
      "outputs": [
        {
          "internalType": "string",
          "name": "",
          "type": "string"
        }
      ],
      "stateMutability": "view",
      "type": "function"
    },
    {
      "inputs": [],
      "name": "cost",
      "outputs": [
        {
          "internalType": "uint256",
          "name": "",
          "type": "uint256"
        }
      ],
      "stateMutability": "view",
      "type": "function"
    },
    {
      "inputs": [
        {
          "internalType": "uint256",
          "name": "tokenId",
          "type": "uint256"
        }
      ],
      "name": "getApproved",
      "outputs": [
        {
          "internalType": "address",
          "name": "",
          "type": "address"
        }
      ],
      "stateMutability": "view",
      "type": "function"
    },
    {
      "inputs": [
        {
          "internalType": "address",
          "name": "owner",
          "type": "address"
        },
        {
          "internalType": "address",
          "name": "operator",
          "type": "address"
        }
      ],
      "name": "isApprovedForAll",
      "outputs": [
        {
          "internalType": "bool",
          "name": "",
          "type": "bool"
        }
      ],
      "stateMutability": "view",
      "type": "function"
    },
    {
      "inputs": [],
      "name": "maxMintAmount",
      "outputs": [
        {
          "internalType": "uint256",
          "name": "",
          "type": "uint256"
        }
      ],
      "stateMutability": "view",
      "type": "function"
    },
    {
      "inputs": [],
      "name": "maxSupply",
      "outputs": [
        {
          "internalType": "uint256",
          "name": "",
          "type": "uint256"
        }
      ],
      "stateMutability": "view",
      "type": "function"
    },
    {
      "inputs": [
        {
          "internalType": "address",
          "name": "_to",
          "type": "address"
        },
        {
          "internalType": "uint256",
          "name": "_mintAmount",
          "type": "uint256"
        }
      ],
      "name": "mint",
      "outputs": [],
      "stateMutability": "payable",
      "type": "function"
    },
    {
      "inputs": [],
      "name": "name",
      "outputs": [
        {
          "internalType": "string",
          "name": "",
          "type": "string"
        }
      ],
      "stateMutability": "view",
      "type": "function"
    },
    {
      "inputs": [],
      "name": "owner",
      "outputs": [
        {
          "internalType": "address",
          "name": "",
          "type": "address"
        }
      ],
      "stateMutability": "view",
      "type": "function"
    },
    {
      "inputs": [
        {
          "internalType": "uint256",
          "name": "tokenId",
          "type": "uint256"
        }
      ],
      "name": "ownerOf",
      "outputs": [
        {
          "internalType": "address",
          "name": "",
          "type": "address"
        }
      ],
      "stateMutability": "view",
      "type": "function"
    },
    {
      "inputs": [
        {
          "internalType": "bool",
          "name": "_state",
          "type": "bool"
        }
      ],
      "name": "pause",
      "outputs": [],
      "stateMutability": "nonpayable",
      "type": "function"
    },
    {
      "inputs": [],
      "name": "paused",
      "outputs": [
        {
          "internalType": "bool",
          "name": "",
          "type": "bool"
        }
      ],
      "stateMutability": "view",
      "type": "function"
    },
    {
      "inputs": [
        {
          "internalType": "address",
          "name": "_user",
          "type": "address"
        }
      ],
      "name": "removeWhitelistUser",
      "outputs": [],
      "stateMutability": "nonpayable",
      "type": "function"
    },
    {
      "inputs": [],
      "name": "renounceOwnership",
      "outputs": [],
      "stateMutability": "nonpayable",
      "type": "function"
    },
    {
      "inputs": [
        {
          "internalType": "address",
          "name": "from",
          "type": "address"
        },
        {
          "internalType": "address",
          "name": "to",
          "type": "address"
        },
        {
          "internalType": "uint256",
          "name": "tokenId",
          "type": "uint256"
        }
      ],
      "name": "safeTransferFrom",
      "outputs": [],
      "stateMutability": "nonpayable",
      "type": "function"
    },
    {
      "inputs": [
        {
          "internalType": "address",
          "name": "from",
          "type": "address"
        },
        {
          "internalType": "address",
          "name": "to",
          "type": "address"
        },
        {
          "internalType": "uint256",
          "name": "tokenId",
          "type": "uint256"
        },
        {
          "internalType": "bytes",
          "name": "_data",
          "type": "bytes"
        }
      ],
      "name": "safeTransferFrom",
      "outputs": [],
      "stateMutability": "nonpayable",
      "type": "function"
    },
    {
      "inputs": [
        {
          "internalType": "address",
          "name": "operator",
          "type": "address"
        },
        {
          "internalType": "bool",
          "name": "approved",
          "type": "bool"
        }
      ],
      "name": "setApprovalForAll",
      "outputs": [],
      "stateMutability": "nonpayable",
      "type": "function"
    },
    {
      "inputs": [
        {
          "internalType": "string",
          "name": "_newBaseExtension",
          "type": "string"
        }
      ],
      "name": "setBaseExtension",
      "outputs": [],
      "stateMutability": "nonpayable",
      "type": "function"
    },
    {
      "inputs": [
        {
          "internalType": "string",
          "name": "_newBaseURI",
          "type": "string"
        }
      ],
      "name": "setBaseURI",
      "outputs": [],
      "stateMutability": "nonpayable",
      "type": "function"
    },
    {
      "inputs": [
        {
          "internalType": "uint256",
          "name": "_newCost",
          "type": "uint256"
        }
      ],
      "name": "setCost",
      "outputs": [],
      "stateMutability": "nonpayable",
      "type": "function"
    },
    {
      "inputs": [
        {
          "internalType": "uint256",
          "name": "_newmaxMintAmount",
          "type": "uint256"
        }
      ],
      "name": "setmaxMintAmount",
      "outputs": [],
      "stateMutability": "nonpayable",
      "type": "function"
    },
    {
      "inputs": [
        {
          "internalType": "bytes4",
          "name": "interfaceId",
          "type": "bytes4"
        }
      ],
      "name": "supportsInterface",
      "outputs": [
        {
          "internalType": "bool",
          "name": "",
          "type": "bool"
        }
      ],
      "stateMutability": "view",
      "type": "function"
    },
    {
      "inputs": [],
      "name": "symbol",
      "outputs": [
        {
          "internalType": "string",
          "name": "",
          "type": "string"
        }
      ],
      "stateMutability": "view",
      "type": "function"
    },
    {
      "inputs": [
        {
          "internalType": "uint256",
          "name": "index",
          "type": "uint256"
        }
      ],
      "name": "tokenByIndex",
      "outputs": [
        {
          "internalType": "uint256",
          "name": "",
          "type": "uint256"
        }
      ],
      "stateMutability": "view",
      "type": "function"
    },
    {
      "inputs": [
        {
          "internalType": "address",
          "name": "owner",
          "type": "address"
        },
        {
          "internalType": "uint256",
          "name": "index",
          "type": "uint256"
        }
      ],
      "name": "tokenOfOwnerByIndex",
      "outputs": [
        {
          "internalType": "uint256",
          "name": "",
          "type": "uint256"
        }
      ],
      "stateMutability": "view",
      "type": "function"
    },
    {
      "inputs": [
        {
          "internalType": "uint256",
          "name": "tokenId",
          "type": "uint256"
        }
      ],
      "name": "tokenURI",
      "outputs": [
        {
          "internalType": "string",
          "name": "",
          "type": "string"
        }
      ],
      "stateMutability": "view",
      "type": "function"
    },
    {
      "inputs": [],
      "name": "totalSupply",
      "outputs": [
        {
          "internalType": "uint256",
          "name": "",
          "type": "uint256"
        }
      ],
      "stateMutability": "view",
      "type": "function"
    },
    {
      "inputs": [
        {
          "internalType": "address",
          "name": "from",
          "type": "address"
        },
        {
          "internalType": "address",
          "name": "to",
          "type": "address"
        },
        {
          "internalType": "uint256",
          "name": "tokenId",
          "type": "uint256"
        }
      ],
      "name": "transferFrom",
      "outputs": [],
      "stateMutability": "nonpayable",
      "type": "function"
    },
    {
      "inputs": [
        {
          "internalType": "address",
          "name": "newOwner",
          "type": "address"
        }
      ],
      "name": "transferOwnership",
      "outputs": [],
      "stateMutability": "nonpayable",
      "type": "function"
    },
    {
      "inputs": [
        {
          "internalType": "address",
          "name": "_owner",
          "type": "address"
        }
      ],
      "name": "walletOfOwner",
      "outputs": [
        {
          "internalType": "uint256[]",
          "name": "",
          "type": "uint256[]"
        }
      ],
      "stateMutability": "view",
      "type": "function"
    },
    {
      "inputs": [
        {
          "internalType": "address",
          "name": "_user",
          "type": "address"
        }
      ],
      "name": "whitelistUser",
      "outputs": [],
      "stateMutability": "nonpayable",
      "type": "function"
    },
    {
      "inputs": [
        {
          "internalType": "address",
          "name": "",
          "type": "address"
        }
      ],
      "name": "whitelisted",
      "outputs": [
        {
          "internalType": "bool",
          "name": "",
          "type": "bool"
        }
      ],
      "stateMutability": "view",
      "type": "function"
    },
    {
      "inputs": [],
      "name": "withdraw",
      "outputs": [],
      "stateMutability": "payable",
      "type": "function"
    }
  ],
  "bytecode": "0x60806040526040518060400160405280600581526020017f2e6a736f6e000000000000000000000000000000000000000000000000000000815250600c908051906020019062000051929190620002ca565b50670de0b6b3a7640000600d55612710600e556001600f556000601060006101000a81548160ff0219169083151502179055503480156200009157600080fd5b5060405162004d8e38038062004d8e8339818101604052810190620000b79190620003ec565b82828160009080519060200190620000d1929190620002ca565b508060019080519060200190620000ea929190620002ca565b5050506200010d620001016200012760201b60201c565b6200012f60201b60201c565b6200011e81620001f560201b60201c565b50505062000680565b600033905090565b6000600a60009054906101000a900473ffffffffffffffffffffffffffffffffffffffff16905081600a60006101000a81548173ffffffffffffffffffffffffffffffffffffffff021916908373ffffffffffffffffffffffffffffffffffffffff1602179055508173ffffffffffffffffffffffffffffffffffffffff168173ffffffffffffffffffffffffffffffffffffffff167f8be0079c531659141344cd1fd0a4f28419497f9722a3daafe3b4186f6b6457e060405160405180910390a35050565b620002056200012760201b60201c565b73ffffffffffffffffffffffffffffffffffffffff166200022b620002a060201b60201c565b73ffffffffffffffffffffffffffffffffffffffff161462000284576040517f08c379a00000000000000000000000000000000000000000000000000000000081526004016200027b90620004b4565b60405180910390fd5b80600b90805190602001906200029c929190620002ca565b5050565b6000600a60009054906101000a900473ffffffffffffffffffffffffffffffffffffffff16905090565b828054620002d8906200057c565b90600052602060002090601f016020900481019282620002fc576000855562000348565b82601f106200031757805160ff191683800117855562000348565b8280016001018555821562000348579182015b82811115620003475782518255916020019190600101906200032a565b5b5090506200035791906200035b565b5090565b5b80821115620003765760008160009055506001016200035c565b5090565b6000620003916200038b84620004ff565b620004d6565b905082815260208101848484011115620003aa57600080fd5b620003b784828562000546565b509392505050565b600082601f830112620003d157600080fd5b8151620003e38482602086016200037a565b91505092915050565b6000806000606084860312156200040257600080fd5b600084015167ffffffffffffffff8111156200041d57600080fd5b6200042b86828701620003bf565b935050602084015167ffffffffffffffff8111156200044957600080fd5b6200045786828701620003bf565b925050604084015167ffffffffffffffff8111156200047557600080fd5b6200048386828701620003bf565b9150509250925092565b60006200049c60208362000535565b9150620004a98262000657565b602082019050919050565b60006020820190508181036000830152620004cf816200048d565b9050919050565b6000620004e2620004f5565b9050620004f08282620005b2565b919050565b6000604051905090565b600067ffffffffffffffff8211156200051d576200051c62000617565b5b620005288262000646565b9050602081019050919050565b600082825260208201905092915050565b60005b838110156200056657808201518184015260208101905062000549565b8381111562000576576000848401525b50505050565b600060028204905060018216806200059557607f821691505b60208210811415620005ac57620005ab620005e8565b5b50919050565b620005bd8262000646565b810181811067ffffffffffffffff82111715620005df57620005de62000617565b5b80604052505050565b7f4e487b7100000000000000000000000000000000000000000000000000000000600052602260045260246000fd5b7f4e487b7100000000000000000000000000000000000000000000000000000000600052604160045260246000fd5b6000601f19601f8301169050919050565b7f4f776e61626c653a2063616c6c6572206973206e6f7420746865206f776e6572600082015250565b6146fe80620006906000396000f3fe60806040526004361061020f5760003560e01c806355f804b311610118578063a22cb465116100a0578063d5abeb011161006f578063d5abeb011461077f578063d936547e146107aa578063da3ef23f146107e7578063e985e9c514610810578063f2fde38b1461084d5761020f565b8063a22cb465146106c5578063b88d4fde146106ee578063c668286214610717578063c87b56dd146107425761020f565b806370a08231116100e757806370a08231146105f2578063715018a61461062f5780637f00c7a6146106465780638da5cb5b1461066f57806395d89b411461069a5761020f565b806355f804b3146105365780635c975abb1461055f5780636352211e1461058a5780636c0360eb146105c75761020f565b80632f745c591161019b57806342842e0e1161016a57806342842e0e14610441578063438b63001461046a57806344a0d68a146104a75780634a4c560d146104d05780634f6ccce7146104f95761020f565b80632f745c59146103b557806330cc7ae0146103f25780633ccfd60b1461041b57806340c10f19146104255761020f565b8063095ea7b3116101e2578063095ea7b3146102e257806313faede61461030b57806318160ddd14610336578063239c70ae1461036157806323b872dd1461038c5761020f565b806301ffc9a71461021457806302329a291461025157806306fdde031461027a578063081812fc146102a5575b600080fd5b34801561022057600080fd5b5061023b6004803603810190610236919061344b565b610876565b6040516102489190613a43565b60405180910390f35b34801561025d57600080fd5b5061027860048036038101906102739190613422565b6108f0565b005b34801561028657600080fd5b5061028f610989565b60405161029c9190613a5e565b60405180910390f35b3480156102b157600080fd5b506102cc60048036038101906102c791906134de565b610a1b565b6040516102d991906139ba565b60405180910390f35b3480156102ee57600080fd5b50610309600480360381019061030491906133e6565b610aa0565b005b34801561031757600080fd5b50610320610bb8565b60405161032d9190613cc0565b60405180910390f35b34801561034257600080fd5b5061034b610bbe565b6040516103589190613cc0565b60405180910390f35b34801561036d57600080fd5b50610376610bcb565b6040516103839190613cc0565b60405180910390f35b34801561039857600080fd5b506103b360048036038101906103ae91906132e0565b610bd1565b005b3480156103c157600080fd5b506103dc60048036038101906103d791906133e6565b610c31565b6040516103e99190613cc0565b60405180910390f35b3480156103fe57600080fd5b506104196004803603810190610414919061327b565b610cd6565b005b610423610dad565b005b61043f600480360381019061043a91906133e6565b610f4c565b005b34801561044d57600080fd5b50610468600480360381019061046391906132e0565b6110a4565b005b34801561047657600080fd5b50610491600480360381019061048c919061327b565b6110c4565b60405161049e9190613a21565b60405180910390f35b3480156104b357600080fd5b506104ce60048036038101906104c991906134de565b6111be565b005b3480156104dc57600080fd5b506104f760048036038101906104f2919061327b565b611244565b005b34801561050557600080fd5b50610520600480360381019061051b91906134de565b61131b565b60405161052d9190613cc0565b60405180910390f35b34801561054257600080fd5b5061055d6004803603810190610558919061349d565b6113b2565b005b34801561056b57600080fd5b50610574611448565b6040516105819190613a43565b60405180910390f35b34801561059657600080fd5b506105b160048036038101906105ac91906134de565b61145b565b6040516105be91906139ba565b60405180910390f35b3480156105d357600080fd5b506105dc61150d565b6040516105e99190613a5e565b60405180910390f35b3480156105fe57600080fd5b506106196004803603810190610614919061327b565b61159b565b6040516106269190613cc0565b60405180910390f35b34801561063b57600080fd5b50610644611653565b005b34801561065257600080fd5b5061066d600480360381019061066891906134de565b6116db565b005b34801561067b57600080fd5b50610684611761565b60405161069191906139ba565b60405180910390f35b3480156106a657600080fd5b506106af61178b565b6040516106bc9190613a5e565b60405180910390f35b3480156106d157600080fd5b506106ec60048036038101906106e791906133aa565b61181d565b005b3480156106fa57600080fd5b506107156004803603810190610710919061332f565b611833565b005b34801561072357600080fd5b5061072c611895565b6040516107399190613a5e565b60405180910390f35b34801561074e57600080fd5b50610769600480360381019061076491906134de565b611923565b6040516107769190613a5e565b60405180910390f35b34801561078b57600080fd5b506107946119cd565b6040516107a19190613cc0565b60405180910390f35b3480156107b657600080fd5b506107d160048036038101906107cc919061327b565b6119d3565b6040516107de9190613a43565b60405180910390f35b3480156107f357600080fd5b5061080e6004803603810190610809919061349d565b6119f3565b005b34801561081c57600080fd5b50610837600480360381019061083291906132a4565b611a89565b6040516108449190613a43565b60405180910390f35b34801561085957600080fd5b50610874600480360381019061086f919061327b565b611b1d565b005b60007f780e9d63000000000000000000000000000000000000000000000000000000007bffffffffffffffffffffffffffffffffffffffffffffffffffffffff1916827bffffffffffffffffffffffffffffffffffffffffffffffffffffffff191614806108e957506108e882611c15565b5b9050919050565b6108f8611cf7565b73ffffffffffffffffffffffffffffffffffffffff16610916611761565b73ffffffffffffffffffffffffffffffffffffffff161461096c576040517f08c379a000000000000000000000000000000000000000000000000000000000815260040161096390613c20565b60405180910390fd5b80601060006101000a81548160ff02191690831515021790555050565b60606000805461099890613fc9565b80601f01602080910402602001604051908101604052809291908181526020018280546109c490613fc9565b8015610a115780601f106109e657610100808354040283529160200191610a11565b820191906000526020600020905b8154815290600101906020018083116109f457829003601f168201915b5050505050905090565b6000610a2682611cff565b610a65576040517f08c379a0000000000000000000000000000000000000000000000000000000008152600401610a5c90613c00565b60405180910390fd5b6004600083815260200190815260200160002060009054906101000a900473ffffffffffffffffffffffffffffffffffffffff169050919050565b6000610aab8261145b565b90508073ffffffffffffffffffffffffffffffffffffffff168373ffffffffffffffffffffffffffffffffffffffff161415610b1c576040517f08c379a0000000000000000000000000000000000000000000000000000000008152600401610b1390613c60565b60405180910390fd5b8073ffffffffffffffffffffffffffffffffffffffff16610b3b611cf7565b73ffffffffffffffffffffffffffffffffffffffff161480610b6a5750610b6981610b64611cf7565b611a89565b5b610ba9576040517f08c379a0000000000000000000000000000000000000000000000000000000008152600401610ba090613b80565b60405180910390fd5b610bb38383611d6b565b505050565b600d5481565b6000600880549050905090565b600f5481565b610be2610bdc611cf7565b82611e24565b610c21576040517f08c379a0000000000000000000000000000000000000000000000000000000008152600401610c1890613c80565b60405180910390fd5b610c2c838383611f02565b505050565b6000610c3c8361159b565b8210610c7d576040517f08c379a0000000000000000000000000000000000000000000000000000000008152600401610c7490613a80565b60405180910390fd5b600660008473ffffffffffffffffffffffffffffffffffffffff1673ffffffffffffffffffffffffffffffffffffffff168152602001908152602001600020600083815260200190815260200160002054905092915050565b610cde611cf7565b73ffffffffffffffffffffffffffffffffffffffff16610cfc611761565b73ffffffffffffffffffffffffffffffffffffffff1614610d52576040517f08c379a0000000000000000000000000000000000000000000000000000000008152600401610d4990613c20565b60405180910390fd5b6000601160008373ffffffffffffffffffffffffffffffffffffffff1673ffffffffffffffffffffffffffffffffffffffff16815260200190815260200160002060006101000a81548160ff02191690831515021790555050565b610db5611cf7565b73ffffffffffffffffffffffffffffffffffffffff16610dd3611761565b73ffffffffffffffffffffffffffffffffffffffff1614610e29576040517f08c379a0000000000000000000000000000000000000000000000000000000008152600401610e2090613c20565b60405180910390fd5b600073943590a42c27d08e3744202c4ae5ed55c2de240d73ffffffffffffffffffffffffffffffffffffffff166064600547610e659190613e85565b610e6f9190613e54565b604051610e7b906139a5565b60006040518083038185875af1925050503d8060008114610eb8576040519150601f19603f3d011682016040523d82523d6000602084013e610ebd565b606091505b5050905080610ecb57600080fd5b6000610ed5611761565b73ffffffffffffffffffffffffffffffffffffffff1647604051610ef8906139a5565b60006040518083038185875af1925050503d8060008114610f35576040519150601f19603f3d011682016040523d82523d6000602084013e610f3a565b606091505b5050905080610f4857600080fd5b5050565b6000610f56610bbe565b9050610f6183612169565b610f6a82612202565b601060009054906101000a900460ff1615610f8457600080fd5b60008211610f9157600080fd5b600f54821115610fa057600080fd5b600e548282610faf9190613dfe565b1115610fba57600080fd5b610fc2611761565b73ffffffffffffffffffffffffffffffffffffffff163373ffffffffffffffffffffffffffffffffffffffff16146110685760011515601160003373ffffffffffffffffffffffffffffffffffffffff1673ffffffffffffffffffffffffffffffffffffffff16815260200190815260200160002060009054906101000a900460ff161515146110675781600d5461105a9190613e85565b34101561106657600080fd5b5b5b6000600190505b82811161109e5761108b8482846110869190613dfe565b61229b565b80806110969061402c565b91505061106f565b50505050565b6110bf83838360405180602001604052806000815250611833565b505050565b606060006110d18361159b565b905060008167ffffffffffffffff811115611115577f4e487b7100000000000000000000000000000000000000000000000000000000600052604160045260246000fd5b6040519080825280602002602001820160405280156111435781602001602082028036833780820191505090505b50905060005b828110156111b35761115b8582610c31565b828281518110611194577f4e487b7100000000000000000000000000000000000000000000000000000000600052603260045260246000fd5b60200260200101818152505080806111ab9061402c565b915050611149565b508092505050919050565b6111c6611cf7565b73ffffffffffffffffffffffffffffffffffffffff166111e4611761565b73ffffffffffffffffffffffffffffffffffffffff161461123a576040517f08c379a000000000000000000000000000000000000000000000000000000000815260040161123190613c20565b60405180910390fd5b80600d8190555050565b61124c611cf7565b73ffffffffffffffffffffffffffffffffffffffff1661126a611761565b73ffffffffffffffffffffffffffffffffffffffff16146112c0576040517f08c379a00000000000000000000000000000000000000000000000000000000081526004016112b790613c20565b60405180910390fd5b6001601160008373ffffffffffffffffffffffffffffffffffffffff1673ffffffffffffffffffffffffffffffffffffffff16815260200190815260200160002060006101000a81548160ff02191690831515021790555050565b6000611325610bbe565b8210611366576040517f08c379a000000000000000000000000000000000000000000000000000000000815260040161135d90613ca0565b60405180910390fd5b600882815481106113a0577f4e487b7100000000000000000000000000000000000000000000000000000000600052603260045260246000fd5b90600052602060002001549050919050565b6113ba611cf7565b73ffffffffffffffffffffffffffffffffffffffff166113d8611761565b73ffffffffffffffffffffffffffffffffffffffff161461142e576040517f08c379a000000000000000000000000000000000000000000000000000000000815260040161142590613c20565b60405180910390fd5b80600b908051906020019061144492919061309f565b5050565b601060009054906101000a900460ff1681565b6000806002600084815260200190815260200160002060009054906101000a900473ffffffffffffffffffffffffffffffffffffffff169050600073ffffffffffffffffffffffffffffffffffffffff168173ffffffffffffffffffffffffffffffffffffffff161415611504576040517f08c379a00000000000000000000000000000000000000000000000000000000081526004016114fb90613bc0565b60405180910390fd5b80915050919050565b600b805461151a90613fc9565b80601f016020809104026020016040519081016040528092919081815260200182805461154690613fc9565b80156115935780601f1061156857610100808354040283529160200191611593565b820191906000526020600020905b81548152906001019060200180831161157657829003601f168201915b505050505081565b60008073ffffffffffffffffffffffffffffffffffffffff168273ffffffffffffffffffffffffffffffffffffffff16141561160c576040517f08c379a000000000000000000000000000000000000000000000000000000000815260040161160390613ba0565b60405180910390fd5b600360008373ffffffffffffffffffffffffffffffffffffffff1673ffffffffffffffffffffffffffffffffffffffff168152602001908152602001600020549050919050565b61165b611cf7565b73ffffffffffffffffffffffffffffffffffffffff16611679611761565b73ffffffffffffffffffffffffffffffffffffffff16146116cf576040517f08c379a00000000000000000000000000000000000000000000000000000000081526004016116c690613c20565b60405180910390fd5b6116d960006122b9565b565b6116e3611cf7565b73ffffffffffffffffffffffffffffffffffffffff16611701611761565b73ffffffffffffffffffffffffffffffffffffffff1614611757576040517f08c379a000000000000000000000000000000000000000000000000000000000815260040161174e90613c20565b60405180910390fd5b80600f8190555050565b6000600a60009054906101000a900473ffffffffffffffffffffffffffffffffffffffff16905090565b60606001805461179a90613fc9565b80601f01602080910402602001604051908101604052809291908181526020018280546117c690613fc9565b80156118135780601f106117e857610100808354040283529160200191611813565b820191906000526020600020905b8154815290600101906020018083116117f657829003601f168201915b5050505050905090565b61182f611828611cf7565b838361237f565b5050565b61184461183e611cf7565b83611e24565b611883576040517f08c379a000000000000000000000000000000000000000000000000000000000815260040161187a90613c80565b60405180910390fd5b61188f848484846124ec565b50505050565b600c80546118a290613fc9565b80601f01602080910402602001604051908101604052809291908181526020018280546118ce90613fc9565b801561191b5780601f106118f05761010080835404028352916020019161191b565b820191906000526020600020905b8154815290600101906020018083116118fe57829003601f168201915b505050505081565b606061192e82611cff565b61196d576040517f08c379a000000000000000000000000000000000000000000000000000000000815260040161196490613c40565b60405180910390fd5b6000611977612548565b9050600081511161199757604051806020016040528060008152506119c5565b806119a1846125da565b600c6040516020016119b593929190613974565b6040516020818303038152906040525b915050919050565b600e5481565b60116020528060005260406000206000915054906101000a900460ff1681565b6119fb611cf7565b73ffffffffffffffffffffffffffffffffffffffff16611a19611761565b73ffffffffffffffffffffffffffffffffffffffff1614611a6f576040517f08c379a0000000000000000000000000000000000000000000000000000000008152600401611a6690613c20565b60405180910390fd5b80600c9080519060200190611a8592919061309f565b5050565b6000600560008473ffffffffffffffffffffffffffffffffffffffff1673ffffffffffffffffffffffffffffffffffffffff16815260200190815260200160002060008373ffffffffffffffffffffffffffffffffffffffff1673ffffffffffffffffffffffffffffffffffffffff16815260200190815260200160002060009054906101000a900460ff16905092915050565b611b25611cf7565b73ffffffffffffffffffffffffffffffffffffffff16611b43611761565b73ffffffffffffffffffffffffffffffffffffffff1614611b99576040517f08c379a0000000000000000000000000000000000000000000000000000000008152600401611b9090613c20565b60405180910390fd5b600073ffffffffffffffffffffffffffffffffffffffff168173ffffffffffffffffffffffffffffffffffffffff161415611c09576040517f08c379a0000000000000000000000000000000000000000000000000000000008152600401611c0090613ac0565b60405180910390fd5b611c12816122b9565b50565b60007f80ac58cd000000000000000000000000000000000000000000000000000000007bffffffffffffffffffffffffffffffffffffffffffffffffffffffff1916827bffffffffffffffffffffffffffffffffffffffffffffffffffffffff19161480611ce057507f5b5e139f000000000000000000000000000000000000000000000000000000007bffffffffffffffffffffffffffffffffffffffffffffffffffffffff1916827bffffffffffffffffffffffffffffffffffffffffffffffffffffffff1916145b80611cf05750611cef82612787565b5b9050919050565b600033905090565b60008073ffffffffffffffffffffffffffffffffffffffff166002600084815260200190815260200160002060009054906101000a900473ffffffffffffffffffffffffffffffffffffffff1673ffffffffffffffffffffffffffffffffffffffff1614159050919050565b816004600083815260200190815260200160002060006101000a81548173ffffffffffffffffffffffffffffffffffffffff021916908373ffffffffffffffffffffffffffffffffffffffff160217905550808273ffffffffffffffffffffffffffffffffffffffff16611dde8361145b565b73ffffffffffffffffffffffffffffffffffffffff167f8c5be1e5ebec7d5bd14f71427d1e84f3dd0314c0f7b2291e5b200ac8c7c3b92560405160405180910390a45050565b6000611e2f82611cff565b611e6e576040517f08c379a0000000000000000000000000000000000000000000000000000000008152600401611e6590613b60565b60405180910390fd5b6000611e798361145b565b90508073ffffffffffffffffffffffffffffffffffffffff168473ffffffffffffffffffffffffffffffffffffffff161480611ebb5750611eba8185611a89565b5b80611ef957508373ffffffffffffffffffffffffffffffffffffffff16611ee184610a1b565b73ffffffffffffffffffffffffffffffffffffffff16145b91505092915050565b8273ffffffffffffffffffffffffffffffffffffffff16611f228261145b565b73ffffffffffffffffffffffffffffffffffffffff1614611f78576040517f08c379a0000000000000000000000000000000000000000000000000000000008152600401611f6f90613ae0565b60405180910390fd5b600073ffffffffffffffffffffffffffffffffffffffff168273ffffffffffffffffffffffffffffffffffffffff161415611fe8576040517f08c379a0000000000000000000000000000000000000000000000000000000008152600401611fdf90613b20565b60405180910390fd5b611ff38383836127f1565b611ffe600082611d6b565b6001600360008573ffffffffffffffffffffffffffffffffffffffff1673ffffffffffffffffffffffffffffffffffffffff168152602001908152602001600020600082825461204e9190613edf565b925050819055506001600360008473ffffffffffffffffffffffffffffffffffffffff1673ffffffffffffffffffffffffffffffffffffffff16815260200190815260200160002060008282546120a59190613dfe565b92505081905550816002600083815260200190815260200160002060006101000a81548173ffffffffffffffffffffffffffffffffffffffff021916908373ffffffffffffffffffffffffffffffffffffffff160217905550808273ffffffffffffffffffffffffffffffffffffffff168473ffffffffffffffffffffffffffffffffffffffff167fddf252ad1be2c89b69c2b068fc378daa952ba7f163c4a11628f55a4df523b3ef60405160405180910390a4612164838383612905565b505050565b6121ff8160405160240161217d91906139ba565b6040516020818303038152906040527f2c2ecbc2000000000000000000000000000000000000000000000000000000007bffffffffffffffffffffffffffffffffffffffffffffffffffffffff19166020820180517bffffffffffffffffffffffffffffffffffffffffffffffffffffffff838183161783525050505061290a565b50565b612298816040516024016122169190613cc0565b6040516020818303038152906040527ff5b1bba9000000000000000000000000000000000000000000000000000000007bffffffffffffffffffffffffffffffffffffffffffffffffffffffff19166020820180517bffffffffffffffffffffffffffffffffffffffffffffffffffffffff838183161783525050505061290a565b50565b6122b5828260405180602001604052806000815250612933565b5050565b6000600a60009054906101000a900473ffffffffffffffffffffffffffffffffffffffff16905081600a60006101000a81548173ffffffffffffffffffffffffffffffffffffffff021916908373ffffffffffffffffffffffffffffffffffffffff1602179055508173ffffffffffffffffffffffffffffffffffffffff168173ffffffffffffffffffffffffffffffffffffffff167f8be0079c531659141344cd1fd0a4f28419497f9722a3daafe3b4186f6b6457e060405160405180910390a35050565b8173ffffffffffffffffffffffffffffffffffffffff168373ffffffffffffffffffffffffffffffffffffffff1614156123ee576040517f08c379a00000000000000000000000000000000000000000000000000000000081526004016123e590613b40565b60405180910390fd5b80600560008573ffffffffffffffffffffffffffffffffffffffff1673ffffffffffffffffffffffffffffffffffffffff16815260200190815260200160002060008473ffffffffffffffffffffffffffffffffffffffff1673ffffffffffffffffffffffffffffffffffffffff16815260200190815260200160002060006101000a81548160ff0219169083151502179055508173ffffffffffffffffffffffffffffffffffffffff168373ffffffffffffffffffffffffffffffffffffffff167f17307eab39ab6107e8899845ad3d59bd9653f200f220920489ca2b5937696c31836040516124df9190613a43565b60405180910390a3505050565b6124f7848484611f02565b6125038484848461298e565b612542576040517f08c379a000000000000000000000000000000000000000000000000000000000815260040161253990613aa0565b60405180910390fd5b50505050565b6060600b805461255790613fc9565b80601f016020809104026020016040519081016040528092919081815260200182805461258390613fc9565b80156125d05780601f106125a5576101008083540402835291602001916125d0565b820191906000526020600020905b8154815290600101906020018083116125b357829003601f168201915b5050505050905090565b60606000821415612622576040518060400160405280600181526020017f30000000000000000000000000000000000000000000000000000000000000008152509050612782565b600082905060005b6000821461265457808061263d9061402c565b915050600a8261264d9190613e54565b915061262a565b60008167ffffffffffffffff811115612696577f4e487b7100000000000000000000000000000000000000000000000000000000600052604160045260246000fd5b6040519080825280601f01601f1916602001820160405280156126c85781602001600182028036833780820191505090505b5090505b6000851461277b576001826126e19190613edf565b9150600a856126f09190614075565b60306126fc9190613dfe565b60f81b818381518110612738577f4e487b7100000000000000000000000000000000000000000000000000000000600052603260045260246000fd5b60200101907effffffffffffffffffffffffffffffffffffffffffffffffffffffffffffff1916908160001a905350600a856127749190613e54565b94506126cc565b8093505050505b919050565b60007f01ffc9a7000000000000000000000000000000000000000000000000000000007bffffffffffffffffffffffffffffffffffffffffffffffffffffffff1916827bffffffffffffffffffffffffffffffffffffffffffffffffffffffff1916149050919050565b6127fc838383612b25565b600073ffffffffffffffffffffffffffffffffffffffff168373ffffffffffffffffffffffffffffffffffffffff16141561283f5761283a81612b2a565b61287e565b8173ffffffffffffffffffffffffffffffffffffffff168373ffffffffffffffffffffffffffffffffffffffff161461287d5761287c8382612b73565b5b5b600073ffffffffffffffffffffffffffffffffffffffff168273ffffffffffffffffffffffffffffffffffffffff1614156128c1576128bc81612ce0565b612900565b8273ffffffffffffffffffffffffffffffffffffffff168273ffffffffffffffffffffffffffffffffffffffff16146128ff576128fe8282612e23565b5b5b505050565b505050565b60008151905060006a636f6e736f6c652e6c6f679050602083016000808483855afa5050505050565b61293d8383612ea2565b61294a600084848461298e565b612989576040517f08c379a000000000000000000000000000000000000000000000000000000000815260040161298090613aa0565b60405180910390fd5b505050565b60006129af8473ffffffffffffffffffffffffffffffffffffffff1661307c565b15612b18578373ffffffffffffffffffffffffffffffffffffffff1663150b7a026129d8611cf7565b8786866040518563ffffffff1660e01b81526004016129fa94939291906139d5565b602060405180830381600087803b158015612a1457600080fd5b505af1925050508015612a4557506040513d601f19601f82011682018060405250810190612a429190613474565b60015b612ac8573d8060008114612a75576040519150601f19603f3d011682016040523d82523d6000602084013e612a7a565b606091505b50600081511415612ac0576040517f08c379a0000000000000000000000000000000000000000000000000000000008152600401612ab790613aa0565b60405180910390fd5b805181602001fd5b63150b7a0260e01b7bffffffffffffffffffffffffffffffffffffffffffffffffffffffff1916817bffffffffffffffffffffffffffffffffffffffffffffffffffffffff191614915050612b1d565b600190505b949350505050565b505050565b6008805490506009600083815260200190815260200160002081905550600881908060018154018082558091505060019003906000526020600020016000909190919091505550565b60006001612b808461159b565b612b8a9190613edf565b9050600060076000848152602001908152602001600020549050818114612c6f576000600660008673ffffffffffffffffffffffffffffffffffffffff1673ffffffffffffffffffffffffffffffffffffffff168152602001908152602001600020600084815260200190815260200160002054905080600660008773ffffffffffffffffffffffffffffffffffffffff1673ffffffffffffffffffffffffffffffffffffffff168152602001908152602001600020600084815260200190815260200160002081905550816007600083815260200190815260200160002081905550505b6007600084815260200190815260200160002060009055600660008573ffffffffffffffffffffffffffffffffffffffff1673ffffffffffffffffffffffffffffffffffffffff16815260200190815260200160002060008381526020019081526020016000206000905550505050565b60006001600880549050612cf49190613edf565b9050600060096000848152602001908152602001600020549050600060088381548110612d4a577f4e487b7100000000000000000000000000000000000000000000000000000000600052603260045260246000fd5b906000526020600020015490508060088381548110612d92577f4e487b7100000000000000000000000000000000000000000000000000000000600052603260045260246000fd5b906000526020600020018190555081600960008381526020019081526020016000208190555060096000858152602001908152602001600020600090556008805480612e07577f4e487b7100000000000000000000000000000000000000000000000000000000600052603160045260246000fd5b6001900381819060005260206000200160009055905550505050565b6000612e2e8361159b565b905081600660008573ffffffffffffffffffffffffffffffffffffffff1673ffffffffffffffffffffffffffffffffffffffff168152602001908152602001600020600083815260200190815260200160002081905550806007600084815260200190815260200160002081905550505050565b600073ffffffffffffffffffffffffffffffffffffffff168273ffffffffffffffffffffffffffffffffffffffff161415612f12576040517f08c379a0000000000000000000000000000000000000000000000000000000008152600401612f0990613be0565b60405180910390fd5b612f1b81611cff565b15612f5b576040517f08c379a0000000000000000000000000000000000000000000000000000000008152600401612f5290613b00565b60405180910390fd5b612f67600083836127f1565b6001600360008473ffffffffffffffffffffffffffffffffffffffff1673ffffffffffffffffffffffffffffffffffffffff1681526020019081526020016000206000828254612fb79190613dfe565b92505081905550816002600083815260200190815260200160002060006101000a81548173ffffffffffffffffffffffffffffffffffffffff021916908373ffffffffffffffffffffffffffffffffffffffff160217905550808273ffffffffffffffffffffffffffffffffffffffff16600073ffffffffffffffffffffffffffffffffffffffff167fddf252ad1be2c89b69c2b068fc378daa952ba7f163c4a11628f55a4df523b3ef60405160405180910390a461307860008383612905565b5050565b6000808273ffffffffffffffffffffffffffffffffffffffff163b119050919050565b8280546130ab90613fc9565b90600052602060002090601f0160209004810192826130cd5760008555613114565b82601f106130e657805160ff1916838001178555613114565b82800160010185558215613114579182015b828111156131135782518255916020019190600101906130f8565b5b5090506131219190613125565b5090565b5b8082111561313e576000816000905550600101613126565b5090565b600061315561315084613d00565b613cdb565b90508281526020810184848401111561316d57600080fd5b613178848285613f87565b509392505050565b600061319361318e84613d31565b613cdb565b9050828152602081018484840111156131ab57600080fd5b6131b6848285613f87565b509392505050565b6000813590506131cd8161466c565b92915050565b6000813590506131e281614683565b92915050565b6000813590506131f78161469a565b92915050565b60008151905061320c8161469a565b92915050565b600082601f83011261322357600080fd5b8135613233848260208601613142565b91505092915050565b600082601f83011261324d57600080fd5b813561325d848260208601613180565b91505092915050565b600081359050613275816146b1565b92915050565b60006020828403121561328d57600080fd5b600061329b848285016131be565b91505092915050565b600080604083850312156132b757600080fd5b60006132c5858286016131be565b92505060206132d6858286016131be565b9150509250929050565b6000806000606084860312156132f557600080fd5b6000613303868287016131be565b9350506020613314868287016131be565b925050604061332586828701613266565b9150509250925092565b6000806000806080858703121561334557600080fd5b6000613353878288016131be565b9450506020613364878288016131be565b935050604061337587828801613266565b925050606085013567ffffffffffffffff81111561339257600080fd5b61339e87828801613212565b91505092959194509250565b600080604083850312156133bd57600080fd5b60006133cb858286016131be565b92505060206133dc858286016131d3565b9150509250929050565b600080604083850312156133f957600080fd5b6000613407858286016131be565b925050602061341885828601613266565b9150509250929050565b60006020828403121561343457600080fd5b6000613442848285016131d3565b91505092915050565b60006020828403121561345d57600080fd5b600061346b848285016131e8565b91505092915050565b60006020828403121561348657600080fd5b6000613494848285016131fd565b91505092915050565b6000602082840312156134af57600080fd5b600082013567ffffffffffffffff8111156134c957600080fd5b6134d58482850161323c565b91505092915050565b6000602082840312156134f057600080fd5b60006134fe84828501613266565b91505092915050565b60006135138383613956565b60208301905092915050565b61352881613f13565b82525050565b600061353982613d87565b6135438185613db5565b935061354e83613d62565b8060005b8381101561357f5781516135668882613507565b975061357183613da8565b925050600181019050613552565b5085935050505092915050565b61359581613f25565b82525050565b60006135a682613d92565b6135b08185613dc6565b93506135c0818560208601613f96565b6135c981614162565b840191505092915050565b60006135df82613d9d565b6135e98185613de2565b93506135f9818560208601613f96565b61360281614162565b840191505092915050565b600061361882613d9d565b6136228185613df3565b9350613632818560208601613f96565b80840191505092915050565b6000815461364b81613fc9565b6136558186613df3565b945060018216600081146136705760018114613681576136b4565b60ff198316865281860193506136b4565b61368a85613d72565b60005b838110156136ac5781548189015260018201915060208101905061368d565b838801955050505b50505092915050565b60006136ca602b83613de2565b91506136d582614173565b604082019050919050565b60006136ed603283613de2565b91506136f8826141c2565b604082019050919050565b6000613710602683613de2565b915061371b82614211565b604082019050919050565b6000613733602583613de2565b915061373e82614260565b604082019050919050565b6000613756601c83613de2565b9150613761826142af565b602082019050919050565b6000613779602483613de2565b9150613784826142d8565b604082019050919050565b600061379c601983613de2565b91506137a782614327565b602082019050919050565b60006137bf602c83613de2565b91506137ca82614350565b604082019050919050565b60006137e2603883613de2565b91506137ed8261439f565b604082019050919050565b6000613805602a83613de2565b9150613810826143ee565b604082019050919050565b6000613828602983613de2565b91506138338261443d565b604082019050919050565b600061384b602083613de2565b91506138568261448c565b602082019050919050565b600061386e602c83613de2565b9150613879826144b5565b604082019050919050565b6000613891602083613de2565b915061389c82614504565b602082019050919050565b60006138b4602f83613de2565b91506138bf8261452d565b604082019050919050565b60006138d7602183613de2565b91506138e28261457c565b604082019050919050565b60006138fa600083613dd7565b9150613905826145cb565b600082019050919050565b600061391d603183613de2565b9150613928826145ce565b604082019050919050565b6000613940602c83613de2565b915061394b8261461d565b604082019050919050565b61395f81613f7d565b82525050565b61396e81613f7d565b82525050565b6000613980828661360d565b915061398c828561360d565b9150613998828461363e565b9150819050949350505050565b60006139b0826138ed565b9150819050919050565b60006020820190506139cf600083018461351f565b92915050565b60006080820190506139ea600083018761351f565b6139f7602083018661351f565b613a046040830185613965565b8181036060830152613a16818461359b565b905095945050505050565b60006020820190508181036000830152613a3b818461352e565b905092915050565b6000602082019050613a58600083018461358c565b92915050565b60006020820190508181036000830152613a7881846135d4565b905092915050565b60006020820190508181036000830152613a99816136bd565b9050919050565b60006020820190508181036000830152613ab9816136e0565b9050919050565b60006020820190508181036000830152613ad981613703565b9050919050565b60006020820190508181036000830152613af981613726565b9050919050565b60006020820190508181036000830152613b1981613749565b9050919050565b60006020820190508181036000830152613b398161376c565b9050919050565b60006020820190508181036000830152613b598161378f565b9050919050565b60006020820190508181036000830152613b79816137b2565b9050919050565b60006020820190508181036000830152613b99816137d5565b9050919050565b60006020820190508181036000830152613bb9816137f8565b9050919050565b60006020820190508181036000830152613bd98161381b565b9050919050565b60006020820190508181036000830152613bf98161383e565b9050919050565b60006020820190508181036000830152613c1981613861565b9050919050565b60006020820190508181036000830152613c3981613884565b9050919050565b60006020820190508181036000830152613c59816138a7565b9050919050565b60006020820190508181036000830152613c79816138ca565b9050919050565b60006020820190508181036000830152613c9981613910565b9050919050565b60006020820190508181036000830152613cb981613933565b9050919050565b6000602082019050613cd56000830184613965565b92915050565b6000613ce5613cf6565b9050613cf18282613ffb565b919050565b6000604051905090565b600067ffffffffffffffff821115613d1b57613d1a614133565b5b613d2482614162565b9050602081019050919050565b600067ffffffffffffffff821115613d4c57613d4b614133565b5b613d5582614162565b9050602081019050919050565b6000819050602082019050919050565b60008190508160005260206000209050919050565b600081519050919050565b600081519050919050565b600081519050919050565b6000602082019050919050565b600082825260208201905092915050565b600082825260208201905092915050565b600081905092915050565b600082825260208201905092915050565b600081905092915050565b6000613e0982613f7d565b9150613e1483613f7d565b9250827fffffffffffffffffffffffffffffffffffffffffffffffffffffffffffffffff03821115613e4957613e486140a6565b5b828201905092915050565b6000613e5f82613f7d565b9150613e6a83613f7d565b925082613e7a57613e796140d5565b5b828204905092915050565b6000613e9082613f7d565b9150613e9b83613f7d565b9250817fffffffffffffffffffffffffffffffffffffffffffffffffffffffffffffffff0483118215151615613ed457613ed36140a6565b5b828202905092915050565b6000613eea82613f7d565b9150613ef583613f7d565b925082821015613f0857613f076140a6565b5b828203905092915050565b6000613f1e82613f5d565b9050919050565b60008115159050919050565b60007fffffffff0000000000000000000000000000000000000000000000000000000082169050919050565b600073ffffffffffffffffffffffffffffffffffffffff82169050919050565b6000819050919050565b82818337600083830152505050565b60005b83811015613fb4578082015181840152602081019050613f99565b83811115613fc3576000848401525b50505050565b60006002820490506001821680613fe157607f821691505b60208210811415613ff557613ff4614104565b5b50919050565b61400482614162565b810181811067ffffffffffffffff8211171561402357614022614133565b5b80604052505050565b600061403782613f7d565b91507fffffffffffffffffffffffffffffffffffffffffffffffffffffffffffffffff82141561406a576140696140a6565b5b600182019050919050565b600061408082613f7d565b915061408b83613f7d565b92508261409b5761409a6140d5565b5b828206905092915050565b7f4e487b7100000000000000000000000000000000000000000000000000000000600052601160045260246000fd5b7f4e487b7100000000000000000000000000000000000000000000000000000000600052601260045260246000fd5b7f4e487b7100000000000000000000000000000000000000000000000000000000600052602260045260246000fd5b7f4e487b7100000000000000000000000000000000000000000000000000000000600052604160045260246000fd5b6000601f19601f8301169050919050565b7f455243373231456e756d657261626c653a206f776e657220696e646578206f7560008201527f74206f6620626f756e6473000000000000000000000000000000000000000000602082015250565b7f4552433732313a207472616e7366657220746f206e6f6e20455243373231526560008201527f63656976657220696d706c656d656e7465720000000000000000000000000000602082015250565b7f4f776e61626c653a206e6577206f776e657220697320746865207a65726f206160008201527f6464726573730000000000000000000000000000000000000000000000000000602082015250565b7f4552433732313a207472616e736665722066726f6d20696e636f72726563742060008201527f6f776e6572000000000000000000000000000000000000000000000000000000602082015250565b7f4552433732313a20746f6b656e20616c7265616479206d696e74656400000000600082015250565b7f4552433732313a207472616e7366657220746f20746865207a65726f2061646460008201527f7265737300000000000000000000000000000000000000000000000000000000602082015250565b7f4552433732313a20617070726f766520746f2063616c6c657200000000000000600082015250565b7f4552433732313a206f70657261746f7220717565727920666f72206e6f6e657860008201527f697374656e7420746f6b656e0000000000000000000000000000000000000000602082015250565b7f4552433732313a20617070726f76652063616c6c6572206973206e6f74206f7760008201527f6e6572206e6f7220617070726f76656420666f7220616c6c0000000000000000602082015250565b7f4552433732313a2062616c616e636520717565727920666f7220746865207a6560008201527f726f206164647265737300000000000000000000000000000000000000000000602082015250565b7f4552433732313a206f776e657220717565727920666f72206e6f6e657869737460008201527f656e7420746f6b656e0000000000000000000000000000000000000000000000602082015250565b7f4552433732313a206d696e7420746f20746865207a65726f2061646472657373600082015250565b7f4552433732313a20617070726f76656420717565727920666f72206e6f6e657860008201527f697374656e7420746f6b656e0000000000000000000000000000000000000000602082015250565b7f4f776e61626c653a2063616c6c6572206973206e6f7420746865206f776e6572600082015250565b7f4552433732314d657461646174613a2055524920717565727920666f72206e6f60008201527f6e6578697374656e7420746f6b656e0000000000000000000000000000000000602082015250565b7f4552433732313a20617070726f76616c20746f2063757272656e74206f776e6560008201527f7200000000000000000000000000000000000000000000000000000000000000602082015250565b50565b7f4552433732313a207472616e736665722063616c6c6572206973206e6f74206f60008201527f776e6572206e6f7220617070726f766564000000000000000000000000000000602082015250565b7f455243373231456e756d657261626c653a20676c6f62616c20696e646578206f60008201527f7574206f6620626f756e64730000000000000000000000000000000000000000602082015250565b61467581613f13565b811461468057600080fd5b50565b61468c81613f25565b811461469757600080fd5b50565b6146a381613f31565b81146146ae57600080fd5b50565b6146ba81613f7d565b81146146c557600080fd5b5056fea26469706673582212207ddae1213cde68cc7acf058429e863794e932feba546cca3ab5b64dd81e25eef64736f6c63430008040033",
  "linkReferences": {},
  "deployedLinkReferences": {}
}